{
	"introduction-solidity/00. Practicas_Solidity/01_Ejercicio_RegistroDeEmpleados.sol": {
		"ReistroDeEmpleados": {
			"abi": [
				{
					"inputs": [],
					"stateMutability": "nonpayable",
					"type": "constructor"
				},
				{
					"inputs": [
						{
							"internalType": "uint256",
							"name": "",
							"type": "uint256"
						}
					],
					"name": "Empleados",
					"outputs": [
						{
							"internalType": "uint256",
							"name": "idEmpleado",
							"type": "uint256"
						},
						{
							"internalType": "string",
							"name": "nombre",
							"type": "string"
						},
						{
							"internalType": "uint256",
							"name": "salario",
							"type": "uint256"
						}
					],
					"stateMutability": "view",
					"type": "function"
				},
				{
					"inputs": [
						{
							"internalType": "uint256",
							"name": "_idEmpleado",
							"type": "uint256"
						},
						{
							"internalType": "uint256",
							"name": "_salario",
							"type": "uint256"
						}
					],
					"name": "actualizarSalarioEmpleado",
					"outputs": [],
					"stateMutability": "nonpayable",
					"type": "function"
				},
				{
					"inputs": [
						{
							"internalType": "uint256",
							"name": "_idEmpleado",
							"type": "uint256"
						},
						{
							"internalType": "string",
							"name": "_nombre",
							"type": "string"
						},
						{
							"internalType": "uint256",
							"name": "_salario",
							"type": "uint256"
						}
					],
					"name": "agregarEmpleado",
					"outputs": [],
					"stateMutability": "nonpayable",
					"type": "function"
				},
				{
					"inputs": [
						{
							"internalType": "uint256",
							"name": "_idEmpleado",
							"type": "uint256"
						}
					],
					"name": "eliminarEmpleado",
					"outputs": [],
					"stateMutability": "nonpayable",
					"type": "function"
				},
				{
					"inputs": [
						{
							"internalType": "uint256",
							"name": "_idEmpleado",
							"type": "uint256"
						}
					],
					"name": "obtenerEmpleado",
					"outputs": [
						{
							"internalType": "uint256",
							"name": "",
							"type": "uint256"
						},
						{
							"internalType": "string",
							"name": "",
							"type": "string"
						},
						{
							"internalType": "uint256",
							"name": "",
							"type": "uint256"
						}
					],
					"stateMutability": "view",
					"type": "function"
				},
				{
					"inputs": [],
					"name": "propietario",
					"outputs": [
						{
							"internalType": "address",
							"name": "",
							"type": "address"
						}
					],
					"stateMutability": "view",
					"type": "function"
				}
			],
			"devdoc": {
				"kind": "dev",
				"methods": {},
				"version": 1
			},
			"evm": {
				"assembly": "    /* \"introduction-solidity/00. Practicas_Solidity/01_Ejercicio_RegistroDeEmpleados.sol\":57:3413  contract ReistroDeEmpleados {... */\n  mstore(0x40, 0x80)\n    /* \"introduction-solidity/00. Practicas_Solidity/01_Ejercicio_RegistroDeEmpleados.sol\":123:175  constructor() {... */\n  callvalue\n  dup1\n  iszero\n  tag_1\n  jumpi\n  0x00\n  dup1\n  revert\ntag_1:\n  pop\n    /* \"introduction-solidity/00. Practicas_Solidity/01_Ejercicio_RegistroDeEmpleados.sol\":158:168  msg.sender */\n  caller\n    /* \"introduction-solidity/00. Practicas_Solidity/01_Ejercicio_RegistroDeEmpleados.sol\":146:157  propietario */\n  0x00\n  dup1\n    /* \"introduction-solidity/00. Practicas_Solidity/01_Ejercicio_RegistroDeEmpleados.sol\":146:168  propietario=msg.sender */\n  0x0100\n  exp\n  dup2\n  sload\n  dup2\n  0xffffffffffffffffffffffffffffffffffffffff\n  mul\n  not\n  and\n  swap1\n  dup4\n  0xffffffffffffffffffffffffffffffffffffffff\n  and\n  mul\n  or\n  swap1\n  sstore\n  pop\n    /* \"introduction-solidity/00. Practicas_Solidity/01_Ejercicio_RegistroDeEmpleados.sol\":57:3413  contract ReistroDeEmpleados {... */\n  dataSize(sub_0)\n  dup1\n  dataOffset(sub_0)\n  0x00\n  codecopy\n  0x00\n  return\nstop\n\nsub_0: assembly {\n        /* \"introduction-solidity/00. Practicas_Solidity/01_Ejercicio_RegistroDeEmpleados.sol\":57:3413  contract ReistroDeEmpleados {... */\n      mstore(0x40, 0x80)\n      callvalue\n      dup1\n      iszero\n      tag_1\n      jumpi\n      0x00\n      dup1\n      revert\n    tag_1:\n      pop\n      jumpi(tag_2, lt(calldatasize, 0x04))\n      shr(0xe0, calldataload(0x00))\n      dup1\n      0x3c4f81cd\n      eq\n      tag_3\n      jumpi\n      dup1\n      0x748bd104\n      eq\n      tag_4\n      jumpi\n      dup1\n      0x7609987d\n      eq\n      tag_5\n      jumpi\n      dup1\n      0x77ec464f\n      eq\n      tag_6\n      jumpi\n      dup1\n      0xa1ca71b6\n      eq\n      tag_7\n      jumpi\n      dup1\n      0xa35fe0b6\n      eq\n      tag_8\n      jumpi\n    tag_2:\n      0x00\n      dup1\n      revert\n        /* \"introduction-solidity/00. Practicas_Solidity/01_Ejercicio_RegistroDeEmpleados.sol\":91:117  address public propietario */\n    tag_3:\n      tag_9\n      tag_10\n      jump\t// in\n    tag_9:\n      mload(0x40)\n      tag_11\n      swap2\n      swap1\n      tag_12\n      jump\t// in\n    tag_11:\n      mload(0x40)\n      dup1\n      swap2\n      sub\n      swap1\n      return\n        /* \"introduction-solidity/00. Practicas_Solidity/01_Ejercicio_RegistroDeEmpleados.sol\":2129:2969  function obtenerEmpleado (uint256 _idEmpleado) public view returns (uint256, string memory, uint256 ){... */\n    tag_4:\n      tag_13\n      0x04\n      dup1\n      calldatasize\n      sub\n      dup2\n      add\n      swap1\n      tag_14\n      swap2\n      swap1\n      tag_15\n      jump\t// in\n    tag_14:\n      tag_16\n      jump\t// in\n    tag_13:\n      mload(0x40)\n      tag_17\n      swap4\n      swap3\n      swap2\n      swap1\n      tag_18\n      jump\t// in\n    tag_17:\n      mload(0x40)\n      dup1\n      swap2\n      sub\n      swap1\n      return\n        /* \"introduction-solidity/00. Practicas_Solidity/01_Ejercicio_RegistroDeEmpleados.sol\":2977:3167  function actualizarSalarioEmpleado (uint256 _idEmpleado, uint256 _salario) public {... */\n    tag_5:\n      tag_19\n      0x04\n      dup1\n      calldatasize\n      sub\n      dup2\n      add\n      swap1\n      tag_20\n      swap2\n      swap1\n      tag_21\n      jump\t// in\n    tag_20:\n      tag_22\n      jump\t// in\n    tag_19:\n      stop\n        /* \"introduction-solidity/00. Practicas_Solidity/01_Ejercicio_RegistroDeEmpleados.sol\":415:459  mapping (uint256=>Empleado) public Empleados */\n    tag_6:\n      tag_23\n      0x04\n      dup1\n      calldatasize\n      sub\n      dup2\n      add\n      swap1\n      tag_24\n      swap2\n      swap1\n      tag_15\n      jump\t// in\n    tag_24:\n      tag_25\n      jump\t// in\n    tag_23:\n      mload(0x40)\n      tag_26\n      swap4\n      swap3\n      swap2\n      swap1\n      tag_18\n      jump\t// in\n    tag_26:\n      mload(0x40)\n      dup1\n      swap2\n      sub\n      swap1\n      return\n        /* \"introduction-solidity/00. Practicas_Solidity/01_Ejercicio_RegistroDeEmpleados.sol\":3175:3409  function eliminarEmpleado (uint256 _idEmpleado) public {... */\n    tag_7:\n      tag_27\n      0x04\n      dup1\n      calldatasize\n      sub\n      dup2\n      add\n      swap1\n      tag_28\n      swap2\n      swap1\n      tag_15\n      jump\t// in\n    tag_28:\n      tag_29\n      jump\t// in\n    tag_27:\n      stop\n        /* \"introduction-solidity/00. Practicas_Solidity/01_Ejercicio_RegistroDeEmpleados.sol\":713:1991  function agregarEmpleado (... */\n    tag_8:\n      tag_30\n      0x04\n      dup1\n      calldatasize\n      sub\n      dup2\n      add\n      swap1\n      tag_31\n      swap2\n      swap1\n      tag_32\n      jump\t// in\n    tag_31:\n      tag_33\n      jump\t// in\n    tag_30:\n      stop\n        /* \"introduction-solidity/00. Practicas_Solidity/01_Ejercicio_RegistroDeEmpleados.sol\":91:117  address public propietario */\n    tag_10:\n      0x00\n      dup1\n      sload\n      swap1\n      0x0100\n      exp\n      swap1\n      div\n      0xffffffffffffffffffffffffffffffffffffffff\n      and\n      dup2\n      jump\t// out\n        /* \"introduction-solidity/00. Practicas_Solidity/01_Ejercicio_RegistroDeEmpleados.sol\":2129:2969  function obtenerEmpleado (uint256 _idEmpleado) public view returns (uint256, string memory, uint256 ){... */\n    tag_16:\n        /* \"introduction-solidity/00. Practicas_Solidity/01_Ejercicio_RegistroDeEmpleados.sol\":2197:2204  uint256 */\n      0x00\n        /* \"introduction-solidity/00. Practicas_Solidity/01_Ejercicio_RegistroDeEmpleados.sol\":2206:2219  string memory */\n      0x60\n        /* \"introduction-solidity/00. Practicas_Solidity/01_Ejercicio_RegistroDeEmpleados.sol\":2221:2228  uint256 */\n      0x00\n        /* \"introduction-solidity/00. Practicas_Solidity/01_Ejercicio_RegistroDeEmpleados.sol\":2437:2438  0 */\n      dup1\n        /* \"introduction-solidity/00. Practicas_Solidity/01_Ejercicio_RegistroDeEmpleados.sol\":2400:2409  Empleados */\n      0x01\n        /* \"introduction-solidity/00. Practicas_Solidity/01_Ejercicio_RegistroDeEmpleados.sol\":2400:2422  Empleados[_idEmpleado] */\n      0x00\n        /* \"introduction-solidity/00. Practicas_Solidity/01_Ejercicio_RegistroDeEmpleados.sol\":2410:2421  _idEmpleado */\n      dup7\n        /* \"introduction-solidity/00. Practicas_Solidity/01_Ejercicio_RegistroDeEmpleados.sol\":2400:2422  Empleados[_idEmpleado] */\n      dup2\n      mstore\n      0x20\n      add\n      swap1\n      dup2\n      mstore\n      0x20\n      add\n      0x00\n      keccak256\n        /* \"introduction-solidity/00. Practicas_Solidity/01_Ejercicio_RegistroDeEmpleados.sol\":2400:2433  Empleados[_idEmpleado].idEmpleado */\n      0x00\n      add\n      sload\n        /* \"introduction-solidity/00. Practicas_Solidity/01_Ejercicio_RegistroDeEmpleados.sol\":2400:2438  Empleados[_idEmpleado].idEmpleado != 0 */\n      sub\n        /* \"introduction-solidity/00. Practicas_Solidity/01_Ejercicio_RegistroDeEmpleados.sol\":2392:2464  require(Empleados[_idEmpleado].idEmpleado != 0, \"El empleado no existe\") */\n      tag_35\n      jumpi\n      mload(0x40)\n      0x08c379a000000000000000000000000000000000000000000000000000000000\n      dup2\n      mstore\n      0x04\n      add\n      tag_36\n      swap1\n      tag_37\n      jump\t// in\n    tag_36:\n      mload(0x40)\n      dup1\n      swap2\n      sub\n      swap1\n      revert\n    tag_35:\n        /* \"introduction-solidity/00. Practicas_Solidity/01_Ejercicio_RegistroDeEmpleados.sol\":2488:2497  Empleados */\n      0x01\n        /* \"introduction-solidity/00. Practicas_Solidity/01_Ejercicio_RegistroDeEmpleados.sol\":2488:2510  Empleados[_idEmpleado] */\n      0x00\n        /* \"introduction-solidity/00. Practicas_Solidity/01_Ejercicio_RegistroDeEmpleados.sol\":2498:2509  _idEmpleado */\n      dup6\n        /* \"introduction-solidity/00. Practicas_Solidity/01_Ejercicio_RegistroDeEmpleados.sol\":2488:2510  Empleados[_idEmpleado] */\n      dup2\n      mstore\n      0x20\n      add\n      swap1\n      dup2\n      mstore\n      0x20\n      add\n      0x00\n      keccak256\n        /* \"introduction-solidity/00. Practicas_Solidity/01_Ejercicio_RegistroDeEmpleados.sol\":2488:2521  Empleados[_idEmpleado].idEmpleado */\n      0x00\n      add\n      sload\n        /* \"introduction-solidity/00. Practicas_Solidity/01_Ejercicio_RegistroDeEmpleados.sol\":2523:2532  Empleados */\n      0x01\n        /* \"introduction-solidity/00. Practicas_Solidity/01_Ejercicio_RegistroDeEmpleados.sol\":2523:2545  Empleados[_idEmpleado] */\n      0x00\n        /* \"introduction-solidity/00. Practicas_Solidity/01_Ejercicio_RegistroDeEmpleados.sol\":2533:2544  _idEmpleado */\n      dup7\n        /* \"introduction-solidity/00. Practicas_Solidity/01_Ejercicio_RegistroDeEmpleados.sol\":2523:2545  Empleados[_idEmpleado] */\n      dup2\n      mstore\n      0x20\n      add\n      swap1\n      dup2\n      mstore\n      0x20\n      add\n      0x00\n      keccak256\n        /* \"introduction-solidity/00. Practicas_Solidity/01_Ejercicio_RegistroDeEmpleados.sol\":2523:2552  Empleados[_idEmpleado].nombre */\n      0x01\n      add\n        /* \"introduction-solidity/00. Practicas_Solidity/01_Ejercicio_RegistroDeEmpleados.sol\":2555:2564  Empleados */\n      0x01\n        /* \"introduction-solidity/00. Practicas_Solidity/01_Ejercicio_RegistroDeEmpleados.sol\":2555:2577  Empleados[_idEmpleado] */\n      0x00\n        /* \"introduction-solidity/00. Practicas_Solidity/01_Ejercicio_RegistroDeEmpleados.sol\":2565:2576  _idEmpleado */\n      dup8\n        /* \"introduction-solidity/00. Practicas_Solidity/01_Ejercicio_RegistroDeEmpleados.sol\":2555:2577  Empleados[_idEmpleado] */\n      dup2\n      mstore\n      0x20\n      add\n      swap1\n      dup2\n      mstore\n      0x20\n      add\n      0x00\n      keccak256\n        /* \"introduction-solidity/00. Practicas_Solidity/01_Ejercicio_RegistroDeEmpleados.sol\":2555:2585  Empleados[_idEmpleado].salario */\n      0x02\n      add\n      sload\n        /* \"introduction-solidity/00. Practicas_Solidity/01_Ejercicio_RegistroDeEmpleados.sol\":2479:2586  return ( Empleados[_idEmpleado].idEmpleado, Empleados[_idEmpleado].nombre,  Empleados[_idEmpleado].salario) */\n      dup2\n      dup1\n      sload\n      tag_38\n      swap1\n      tag_39\n      jump\t// in\n    tag_38:\n      dup1\n      0x1f\n      add\n      0x20\n      dup1\n      swap2\n      div\n      mul\n      0x20\n      add\n      mload(0x40)\n      swap1\n      dup2\n      add\n      0x40\n      mstore\n      dup1\n      swap3\n      swap2\n      swap1\n      dup2\n      dup2\n      mstore\n      0x20\n      add\n      dup3\n      dup1\n      sload\n      tag_40\n      swap1\n      tag_39\n      jump\t// in\n    tag_40:\n      dup1\n      iszero\n      tag_41\n      jumpi\n      dup1\n      0x1f\n      lt\n      tag_42\n      jumpi\n      0x0100\n      dup1\n      dup4\n      sload\n      div\n      mul\n      dup4\n      mstore\n      swap2\n      0x20\n      add\n      swap2\n      jump(tag_41)\n    tag_42:\n      dup3\n      add\n      swap2\n      swap1\n      0x00\n      mstore\n      keccak256(0x00, 0x20)\n      swap1\n    tag_43:\n      dup2\n      sload\n      dup2\n      mstore\n      swap1\n      0x01\n      add\n      swap1\n      0x20\n      add\n      dup1\n      dup4\n      gt\n      tag_43\n      jumpi\n      dup3\n      swap1\n      sub\n      0x1f\n      and\n      dup3\n      add\n      swap2\n    tag_41:\n      pop\n      pop\n      pop\n      pop\n      pop\n      swap2\n      pop\n      swap3\n      pop\n      swap3\n      pop\n      swap3\n      pop\n        /* \"introduction-solidity/00. Practicas_Solidity/01_Ejercicio_RegistroDeEmpleados.sol\":2129:2969  function obtenerEmpleado (uint256 _idEmpleado) public view returns (uint256, string memory, uint256 ){... */\n      swap2\n      swap4\n      swap1\n      swap3\n      pop\n      jump\t// out\n        /* \"introduction-solidity/00. Practicas_Solidity/01_Ejercicio_RegistroDeEmpleados.sol\":2977:3167  function actualizarSalarioEmpleado (uint256 _idEmpleado, uint256 _salario) public {... */\n    tag_22:\n        /* \"introduction-solidity/00. Practicas_Solidity/01_Ejercicio_RegistroDeEmpleados.sol\":3093:3104  propietario */\n      0x00\n      dup1\n      sload\n      swap1\n      0x0100\n      exp\n      swap1\n      div\n      0xffffffffffffffffffffffffffffffffffffffff\n      and\n        /* \"introduction-solidity/00. Practicas_Solidity/01_Ejercicio_RegistroDeEmpleados.sol\":3079:3104  msg.sender == propietario */\n      0xffffffffffffffffffffffffffffffffffffffff\n      and\n        /* \"introduction-solidity/00. Practicas_Solidity/01_Ejercicio_RegistroDeEmpleados.sol\":3079:3089  msg.sender */\n      caller\n        /* \"introduction-solidity/00. Practicas_Solidity/01_Ejercicio_RegistroDeEmpleados.sol\":3079:3104  msg.sender == propietario */\n      0xffffffffffffffffffffffffffffffffffffffff\n      and\n      eq\n        /* \"introduction-solidity/00. Practicas_Solidity/01_Ejercicio_RegistroDeEmpleados.sol\":3070:3105  require (msg.sender == propietario) */\n      tag_45\n      jumpi\n      0x00\n      dup1\n      revert\n    tag_45:\n        /* \"introduction-solidity/00. Practicas_Solidity/01_Ejercicio_RegistroDeEmpleados.sol\":3149:3157  _salario */\n      dup1\n        /* \"introduction-solidity/00. Practicas_Solidity/01_Ejercicio_RegistroDeEmpleados.sol\":3116:3125  Empleados */\n      0x01\n        /* \"introduction-solidity/00. Practicas_Solidity/01_Ejercicio_RegistroDeEmpleados.sol\":3116:3138  Empleados[_idEmpleado] */\n      0x00\n        /* \"introduction-solidity/00. Practicas_Solidity/01_Ejercicio_RegistroDeEmpleados.sol\":3126:3137  _idEmpleado */\n      dup5\n        /* \"introduction-solidity/00. Practicas_Solidity/01_Ejercicio_RegistroDeEmpleados.sol\":3116:3138  Empleados[_idEmpleado] */\n      dup2\n      mstore\n      0x20\n      add\n      swap1\n      dup2\n      mstore\n      0x20\n      add\n      0x00\n      keccak256\n        /* \"introduction-solidity/00. Practicas_Solidity/01_Ejercicio_RegistroDeEmpleados.sol\":3116:3146  Empleados[_idEmpleado].salario */\n      0x02\n      add\n        /* \"introduction-solidity/00. Practicas_Solidity/01_Ejercicio_RegistroDeEmpleados.sol\":3116:3157  Empleados[_idEmpleado].salario = _salario */\n      dup2\n      swap1\n      sstore\n      pop\n        /* \"introduction-solidity/00. Practicas_Solidity/01_Ejercicio_RegistroDeEmpleados.sol\":2977:3167  function actualizarSalarioEmpleado (uint256 _idEmpleado, uint256 _salario) public {... */\n      pop\n      pop\n      jump\t// out\n        /* \"introduction-solidity/00. Practicas_Solidity/01_Ejercicio_RegistroDeEmpleados.sol\":415:459  mapping (uint256=>Empleado) public Empleados */\n    tag_25:\n      mstore(0x20, 0x01)\n      dup1\n      0x00\n      mstore\n      keccak256(0x00, 0x40)\n      0x00\n      swap2\n      pop\n      swap1\n      pop\n      dup1\n      0x00\n      add\n      sload\n      swap1\n      dup1\n      0x01\n      add\n      dup1\n      sload\n      tag_46\n      swap1\n      tag_39\n      jump\t// in\n    tag_46:\n      dup1\n      0x1f\n      add\n      0x20\n      dup1\n      swap2\n      div\n      mul\n      0x20\n      add\n      mload(0x40)\n      swap1\n      dup2\n      add\n      0x40\n      mstore\n      dup1\n      swap3\n      swap2\n      swap1\n      dup2\n      dup2\n      mstore\n      0x20\n      add\n      dup3\n      dup1\n      sload\n      tag_47\n      swap1\n      tag_39\n      jump\t// in\n    tag_47:\n      dup1\n      iszero\n      tag_48\n      jumpi\n      dup1\n      0x1f\n      lt\n      tag_49\n      jumpi\n      0x0100\n      dup1\n      dup4\n      sload\n      div\n      mul\n      dup4\n      mstore\n      swap2\n      0x20\n      add\n      swap2\n      jump(tag_48)\n    tag_49:\n      dup3\n      add\n      swap2\n      swap1\n      0x00\n      mstore\n      keccak256(0x00, 0x20)\n      swap1\n    tag_50:\n      dup2\n      sload\n      dup2\n      mstore\n      swap1\n      0x01\n      add\n      swap1\n      0x20\n      add\n      dup1\n      dup4\n      gt\n      tag_50\n      jumpi\n      dup3\n      swap1\n      sub\n      0x1f\n      and\n      dup3\n      add\n      swap2\n    tag_48:\n      pop\n      pop\n      pop\n      pop\n      pop\n      swap1\n      dup1\n      0x02\n      add\n      sload\n      swap1\n      pop\n      dup4\n      jump\t// out\n        /* \"introduction-solidity/00. Practicas_Solidity/01_Ejercicio_RegistroDeEmpleados.sol\":3175:3409  function eliminarEmpleado (uint256 _idEmpleado) public {... */\n    tag_29:\n        /* \"introduction-solidity/00. Practicas_Solidity/01_Ejercicio_RegistroDeEmpleados.sol\":3264:3275  propietario */\n      0x00\n      dup1\n      sload\n      swap1\n      0x0100\n      exp\n      swap1\n      div\n      0xffffffffffffffffffffffffffffffffffffffff\n      and\n        /* \"introduction-solidity/00. Practicas_Solidity/01_Ejercicio_RegistroDeEmpleados.sol\":3250:3275  msg.sender == propietario */\n      0xffffffffffffffffffffffffffffffffffffffff\n      and\n        /* \"introduction-solidity/00. Practicas_Solidity/01_Ejercicio_RegistroDeEmpleados.sol\":3250:3260  msg.sender */\n      caller\n        /* \"introduction-solidity/00. Practicas_Solidity/01_Ejercicio_RegistroDeEmpleados.sol\":3250:3275  msg.sender == propietario */\n      0xffffffffffffffffffffffffffffffffffffffff\n      and\n      eq\n        /* \"introduction-solidity/00. Practicas_Solidity/01_Ejercicio_RegistroDeEmpleados.sol\":3241:3276  require (msg.sender == propietario) */\n      tag_52\n      jumpi\n      0x00\n      dup1\n      revert\n    tag_52:\n        /* \"introduction-solidity/00. Practicas_Solidity/01_Ejercicio_RegistroDeEmpleados.sol\":3332:3333  0 */\n      0x00\n        /* \"introduction-solidity/00. Practicas_Solidity/01_Ejercicio_RegistroDeEmpleados.sol\":3295:3304  Empleados */\n      0x01\n        /* \"introduction-solidity/00. Practicas_Solidity/01_Ejercicio_RegistroDeEmpleados.sol\":3295:3317  Empleados[_idEmpleado] */\n      0x00\n        /* \"introduction-solidity/00. Practicas_Solidity/01_Ejercicio_RegistroDeEmpleados.sol\":3305:3316  _idEmpleado */\n      dup4\n        /* \"introduction-solidity/00. Practicas_Solidity/01_Ejercicio_RegistroDeEmpleados.sol\":3295:3317  Empleados[_idEmpleado] */\n      dup2\n      mstore\n      0x20\n      add\n      swap1\n      dup2\n      mstore\n      0x20\n      add\n      0x00\n      keccak256\n        /* \"introduction-solidity/00. Practicas_Solidity/01_Ejercicio_RegistroDeEmpleados.sol\":3295:3328  Empleados[_idEmpleado].idEmpleado */\n      0x00\n      add\n      sload\n        /* \"introduction-solidity/00. Practicas_Solidity/01_Ejercicio_RegistroDeEmpleados.sol\":3295:3333  Empleados[_idEmpleado].idEmpleado != 0 */\n      sub\n        /* \"introduction-solidity/00. Practicas_Solidity/01_Ejercicio_RegistroDeEmpleados.sol\":3287:3359  require(Empleados[_idEmpleado].idEmpleado != 0, \"El empleado no existe\") */\n      tag_53\n      jumpi\n      mload(0x40)\n      0x08c379a000000000000000000000000000000000000000000000000000000000\n      dup2\n      mstore\n      0x04\n      add\n      tag_54\n      swap1\n      tag_37\n      jump\t// in\n    tag_54:\n      mload(0x40)\n      dup1\n      swap2\n      sub\n      swap1\n      revert\n    tag_53:\n        /* \"introduction-solidity/00. Practicas_Solidity/01_Ejercicio_RegistroDeEmpleados.sol\":3377:3386  Empleados */\n      0x01\n        /* \"introduction-solidity/00. Practicas_Solidity/01_Ejercicio_RegistroDeEmpleados.sol\":3377:3399  Empleados[_idEmpleado] */\n      0x00\n        /* \"introduction-solidity/00. Practicas_Solidity/01_Ejercicio_RegistroDeEmpleados.sol\":3387:3398  _idEmpleado */\n      dup3\n        /* \"introduction-solidity/00. Practicas_Solidity/01_Ejercicio_RegistroDeEmpleados.sol\":3377:3399  Empleados[_idEmpleado] */\n      dup2\n      mstore\n      0x20\n      add\n      swap1\n      dup2\n      mstore\n      0x20\n      add\n      0x00\n      keccak256\n      0x00\n        /* \"introduction-solidity/00. Practicas_Solidity/01_Ejercicio_RegistroDeEmpleados.sol\":3370:3399  delete Empleados[_idEmpleado] */\n      dup1\n      dup3\n      add\n      0x00\n      swap1\n      sstore\n      0x01\n      dup3\n      add\n      0x00\n      tag_55\n      swap2\n      swap1\n      tag_56\n      jump\t// in\n    tag_55:\n      0x02\n      dup3\n      add\n      0x00\n      swap1\n      sstore\n      pop\n      pop\n        /* \"introduction-solidity/00. Practicas_Solidity/01_Ejercicio_RegistroDeEmpleados.sol\":3175:3409  function eliminarEmpleado (uint256 _idEmpleado) public {... */\n      pop\n      jump\t// out\n        /* \"introduction-solidity/00. Practicas_Solidity/01_Ejercicio_RegistroDeEmpleados.sol\":713:1991  function agregarEmpleado (... */\n    tag_33:\n        /* \"introduction-solidity/00. Practicas_Solidity/01_Ejercicio_RegistroDeEmpleados.sol\":1124:1135  propietario */\n      0x00\n      dup1\n      sload\n      swap1\n      0x0100\n      exp\n      swap1\n      div\n      0xffffffffffffffffffffffffffffffffffffffff\n      and\n        /* \"introduction-solidity/00. Practicas_Solidity/01_Ejercicio_RegistroDeEmpleados.sol\":1110:1135  msg.sender == propietario */\n      0xffffffffffffffffffffffffffffffffffffffff\n      and\n        /* \"introduction-solidity/00. Practicas_Solidity/01_Ejercicio_RegistroDeEmpleados.sol\":1110:1120  msg.sender */\n      caller\n        /* \"introduction-solidity/00. Practicas_Solidity/01_Ejercicio_RegistroDeEmpleados.sol\":1110:1135  msg.sender == propietario */\n      0xffffffffffffffffffffffffffffffffffffffff\n      and\n      eq\n        /* \"introduction-solidity/00. Practicas_Solidity/01_Ejercicio_RegistroDeEmpleados.sol\":1101:1162  require (msg.sender == propietario, \"No eres el propietario\") */\n      tag_58\n      jumpi\n      mload(0x40)\n      0x08c379a000000000000000000000000000000000000000000000000000000000\n      dup2\n      mstore\n      0x04\n      add\n      tag_59\n      swap1\n      tag_60\n      jump\t// in\n    tag_59:\n      mload(0x40)\n      dup1\n      swap2\n      sub\n      swap1\n      revert\n    tag_58:\n        /* \"introduction-solidity/00. Practicas_Solidity/01_Ejercicio_RegistroDeEmpleados.sol\":1690:1691  0 */\n      0x00\n        /* \"introduction-solidity/00. Practicas_Solidity/01_Ejercicio_RegistroDeEmpleados.sol\":1653:1662  Empleados */\n      0x01\n        /* \"introduction-solidity/00. Practicas_Solidity/01_Ejercicio_RegistroDeEmpleados.sol\":1653:1675  Empleados[_idEmpleado] */\n      0x00\n        /* \"introduction-solidity/00. Practicas_Solidity/01_Ejercicio_RegistroDeEmpleados.sol\":1663:1674  _idEmpleado */\n      dup6\n        /* \"introduction-solidity/00. Practicas_Solidity/01_Ejercicio_RegistroDeEmpleados.sol\":1653:1675  Empleados[_idEmpleado] */\n      dup2\n      mstore\n      0x20\n      add\n      swap1\n      dup2\n      mstore\n      0x20\n      add\n      0x00\n      keccak256\n        /* \"introduction-solidity/00. Practicas_Solidity/01_Ejercicio_RegistroDeEmpleados.sol\":1653:1686  Empleados[_idEmpleado].idEmpleado */\n      0x00\n      add\n      sload\n        /* \"introduction-solidity/00. Practicas_Solidity/01_Ejercicio_RegistroDeEmpleados.sol\":1653:1691  Empleados[_idEmpleado].idEmpleado == 0 */\n      eq\n        /* \"introduction-solidity/00. Practicas_Solidity/01_Ejercicio_RegistroDeEmpleados.sol\":1645:1717  require(Empleados[_idEmpleado].idEmpleado == 0, \"El empleado ya existe\") */\n      tag_61\n      jumpi\n      mload(0x40)\n      0x08c379a000000000000000000000000000000000000000000000000000000000\n      dup2\n      mstore\n      0x04\n      add\n      tag_62\n      swap1\n      tag_63\n      jump\t// in\n    tag_62:\n      mload(0x40)\n      dup1\n      swap2\n      sub\n      swap1\n      revert\n    tag_61:\n        /* \"introduction-solidity/00. Practicas_Solidity/01_Ejercicio_RegistroDeEmpleados.sol\":1933:1973  Empleado(_idEmpleado, _nombre, _salario) */\n      mload(0x40)\n      dup1\n      0x60\n      add\n      0x40\n      mstore\n      dup1\n        /* \"introduction-solidity/00. Practicas_Solidity/01_Ejercicio_RegistroDeEmpleados.sol\":1942:1953  _idEmpleado */\n      dup5\n        /* \"introduction-solidity/00. Practicas_Solidity/01_Ejercicio_RegistroDeEmpleados.sol\":1933:1973  Empleado(_idEmpleado, _nombre, _salario) */\n      dup2\n      mstore\n      0x20\n      add\n        /* \"introduction-solidity/00. Practicas_Solidity/01_Ejercicio_RegistroDeEmpleados.sol\":1955:1962  _nombre */\n      dup4\n        /* \"introduction-solidity/00. Practicas_Solidity/01_Ejercicio_RegistroDeEmpleados.sol\":1933:1973  Empleado(_idEmpleado, _nombre, _salario) */\n      dup2\n      mstore\n      0x20\n      add\n        /* \"introduction-solidity/00. Practicas_Solidity/01_Ejercicio_RegistroDeEmpleados.sol\":1964:1972  _salario */\n      dup3\n        /* \"introduction-solidity/00. Practicas_Solidity/01_Ejercicio_RegistroDeEmpleados.sol\":1933:1973  Empleado(_idEmpleado, _nombre, _salario) */\n      dup2\n      mstore\n      pop\n        /* \"introduction-solidity/00. Practicas_Solidity/01_Ejercicio_RegistroDeEmpleados.sol\":1909:1918  Empleados */\n      0x01\n        /* \"introduction-solidity/00. Practicas_Solidity/01_Ejercicio_RegistroDeEmpleados.sol\":1909:1931  Empleados[_idEmpleado] */\n      0x00\n        /* \"introduction-solidity/00. Practicas_Solidity/01_Ejercicio_RegistroDeEmpleados.sol\":1919:1930  _idEmpleado */\n      dup6\n        /* \"introduction-solidity/00. Practicas_Solidity/01_Ejercicio_RegistroDeEmpleados.sol\":1909:1931  Empleados[_idEmpleado] */\n      dup2\n      mstore\n      0x20\n      add\n      swap1\n      dup2\n      mstore\n      0x20\n      add\n      0x00\n      keccak256\n        /* \"introduction-solidity/00. Practicas_Solidity/01_Ejercicio_RegistroDeEmpleados.sol\":1909:1973  Empleados[_idEmpleado]= Empleado(_idEmpleado, _nombre, _salario) */\n      0x00\n      dup3\n      add\n      mload\n      dup2\n      0x00\n      add\n      sstore\n      0x20\n      dup3\n      add\n      mload\n      dup2\n      0x01\n      add\n      swap1\n      dup2\n      tag_64\n      swap2\n      swap1\n      tag_65\n      jump\t// in\n    tag_64:\n      pop\n      0x40\n      dup3\n      add\n      mload\n      dup2\n      0x02\n      add\n      sstore\n      swap1\n      pop\n      pop\n        /* \"introduction-solidity/00. Practicas_Solidity/01_Ejercicio_RegistroDeEmpleados.sol\":713:1991  function agregarEmpleado (... */\n      pop\n      pop\n      pop\n      jump\t// out\n    tag_56:\n      pop\n      dup1\n      sload\n      tag_66\n      swap1\n      tag_39\n      jump\t// in\n    tag_66:\n      0x00\n      dup3\n      sstore\n      dup1\n      0x1f\n      lt\n      tag_68\n      jumpi\n      pop\n      jump(tag_67)\n    tag_68:\n      0x1f\n      add\n      0x20\n      swap1\n      div\n      swap1\n      0x00\n      mstore\n      keccak256(0x00, 0x20)\n      swap1\n      dup2\n      add\n      swap1\n      tag_69\n      swap2\n      swap1\n      tag_70\n      jump\t// in\n    tag_69:\n    tag_67:\n      pop\n      jump\t// out\n    tag_70:\n    tag_71:\n      dup1\n      dup3\n      gt\n      iszero\n      tag_72\n      jumpi\n      0x00\n      dup2\n      0x00\n      swap1\n      sstore\n      pop\n      0x01\n      add\n      jump(tag_71)\n    tag_72:\n      pop\n      swap1\n      jump\t// out\n        /* \"#utility.yul\":7:133   */\n    tag_73:\n        /* \"#utility.yul\":44:51   */\n      0x00\n        /* \"#utility.yul\":84:126   */\n      0xffffffffffffffffffffffffffffffffffffffff\n        /* \"#utility.yul\":77:82   */\n      dup3\n        /* \"#utility.yul\":73:127   */\n      and\n        /* \"#utility.yul\":62:127   */\n      swap1\n      pop\n        /* \"#utility.yul\":7:133   */\n      swap2\n      swap1\n      pop\n      jump\t// out\n        /* \"#utility.yul\":139:235   */\n    tag_74:\n        /* \"#utility.yul\":176:183   */\n      0x00\n        /* \"#utility.yul\":205:229   */\n      tag_122\n        /* \"#utility.yul\":223:228   */\n      dup3\n        /* \"#utility.yul\":205:229   */\n      tag_73\n      jump\t// in\n    tag_122:\n        /* \"#utility.yul\":194:229   */\n      swap1\n      pop\n        /* \"#utility.yul\":139:235   */\n      swap2\n      swap1\n      pop\n      jump\t// out\n        /* \"#utility.yul\":241:359   */\n    tag_75:\n        /* \"#utility.yul\":328:352   */\n      tag_124\n        /* \"#utility.yul\":346:351   */\n      dup2\n        /* \"#utility.yul\":328:352   */\n      tag_74\n      jump\t// in\n    tag_124:\n        /* \"#utility.yul\":323:326   */\n      dup3\n        /* \"#utility.yul\":316:353   */\n      mstore\n        /* \"#utility.yul\":241:359   */\n      pop\n      pop\n      jump\t// out\n        /* \"#utility.yul\":365:587   */\n    tag_12:\n        /* \"#utility.yul\":458:462   */\n      0x00\n        /* \"#utility.yul\":496:498   */\n      0x20\n        /* \"#utility.yul\":485:494   */\n      dup3\n        /* \"#utility.yul\":481:499   */\n      add\n        /* \"#utility.yul\":473:499   */\n      swap1\n      pop\n        /* \"#utility.yul\":509:580   */\n      tag_126\n        /* \"#utility.yul\":577:578   */\n      0x00\n        /* \"#utility.yul\":566:575   */\n      dup4\n        /* \"#utility.yul\":562:579   */\n      add\n        /* \"#utility.yul\":553:559   */\n      dup5\n        /* \"#utility.yul\":509:580   */\n      tag_75\n      jump\t// in\n    tag_126:\n        /* \"#utility.yul\":365:587   */\n      swap3\n      swap2\n      pop\n      pop\n      jump\t// out\n        /* \"#utility.yul\":593:668   */\n    tag_76:\n        /* \"#utility.yul\":626:632   */\n      0x00\n        /* \"#utility.yul\":659:661   */\n      0x40\n        /* \"#utility.yul\":653:662   */\n      mload\n        /* \"#utility.yul\":643:662   */\n      swap1\n      pop\n        /* \"#utility.yul\":593:668   */\n      swap1\n      jump\t// out\n        /* \"#utility.yul\":674:791   */\n    tag_77:\n        /* \"#utility.yul\":783:784   */\n      0x00\n        /* \"#utility.yul\":780:781   */\n      dup1\n        /* \"#utility.yul\":773:785   */\n      revert\n        /* \"#utility.yul\":797:914   */\n    tag_78:\n        /* \"#utility.yul\":906:907   */\n      0x00\n        /* \"#utility.yul\":903:904   */\n      dup1\n        /* \"#utility.yul\":896:908   */\n      revert\n        /* \"#utility.yul\":920:997   */\n    tag_79:\n        /* \"#utility.yul\":957:964   */\n      0x00\n        /* \"#utility.yul\":986:991   */\n      dup2\n        /* \"#utility.yul\":975:991   */\n      swap1\n      pop\n        /* \"#utility.yul\":920:997   */\n      swap2\n      swap1\n      pop\n      jump\t// out\n        /* \"#utility.yul\":1003:1125   */\n    tag_80:\n        /* \"#utility.yul\":1076:1100   */\n      tag_132\n        /* \"#utility.yul\":1094:1099   */\n      dup2\n        /* \"#utility.yul\":1076:1100   */\n      tag_79\n      jump\t// in\n    tag_132:\n        /* \"#utility.yul\":1069:1074   */\n      dup2\n        /* \"#utility.yul\":1066:1101   */\n      eq\n        /* \"#utility.yul\":1056:1119   */\n      tag_133\n      jumpi\n        /* \"#utility.yul\":1115:1116   */\n      0x00\n        /* \"#utility.yul\":1112:1113   */\n      dup1\n        /* \"#utility.yul\":1105:1117   */\n      revert\n        /* \"#utility.yul\":1056:1119   */\n    tag_133:\n        /* \"#utility.yul\":1003:1125   */\n      pop\n      jump\t// out\n        /* \"#utility.yul\":1131:1270   */\n    tag_81:\n        /* \"#utility.yul\":1177:1182   */\n      0x00\n        /* \"#utility.yul\":1215:1221   */\n      dup2\n        /* \"#utility.yul\":1202:1222   */\n      calldataload\n        /* \"#utility.yul\":1193:1222   */\n      swap1\n      pop\n        /* \"#utility.yul\":1231:1264   */\n      tag_135\n        /* \"#utility.yul\":1258:1263   */\n      dup2\n        /* \"#utility.yul\":1231:1264   */\n      tag_80\n      jump\t// in\n    tag_135:\n        /* \"#utility.yul\":1131:1270   */\n      swap3\n      swap2\n      pop\n      pop\n      jump\t// out\n        /* \"#utility.yul\":1276:1605   */\n    tag_15:\n        /* \"#utility.yul\":1335:1341   */\n      0x00\n        /* \"#utility.yul\":1384:1386   */\n      0x20\n        /* \"#utility.yul\":1372:1381   */\n      dup3\n        /* \"#utility.yul\":1363:1370   */\n      dup5\n        /* \"#utility.yul\":1359:1382   */\n      sub\n        /* \"#utility.yul\":1355:1387   */\n      slt\n        /* \"#utility.yul\":1352:1471   */\n      iszero\n      tag_137\n      jumpi\n        /* \"#utility.yul\":1390:1469   */\n      tag_138\n      tag_77\n      jump\t// in\n    tag_138:\n        /* \"#utility.yul\":1352:1471   */\n    tag_137:\n        /* \"#utility.yul\":1510:1511   */\n      0x00\n        /* \"#utility.yul\":1535:1588   */\n      tag_139\n        /* \"#utility.yul\":1580:1587   */\n      dup5\n        /* \"#utility.yul\":1571:1577   */\n      dup3\n        /* \"#utility.yul\":1560:1569   */\n      dup6\n        /* \"#utility.yul\":1556:1578   */\n      add\n        /* \"#utility.yul\":1535:1588   */\n      tag_81\n      jump\t// in\n    tag_139:\n        /* \"#utility.yul\":1525:1588   */\n      swap2\n      pop\n        /* \"#utility.yul\":1481:1598   */\n      pop\n        /* \"#utility.yul\":1276:1605   */\n      swap3\n      swap2\n      pop\n      pop\n      jump\t// out\n        /* \"#utility.yul\":1611:1729   */\n    tag_82:\n        /* \"#utility.yul\":1698:1722   */\n      tag_141\n        /* \"#utility.yul\":1716:1721   */\n      dup2\n        /* \"#utility.yul\":1698:1722   */\n      tag_79\n      jump\t// in\n    tag_141:\n        /* \"#utility.yul\":1693:1696   */\n      dup3\n        /* \"#utility.yul\":1686:1723   */\n      mstore\n        /* \"#utility.yul\":1611:1729   */\n      pop\n      pop\n      jump\t// out\n        /* \"#utility.yul\":1735:1834   */\n    tag_83:\n        /* \"#utility.yul\":1787:1793   */\n      0x00\n        /* \"#utility.yul\":1821:1826   */\n      dup2\n        /* \"#utility.yul\":1815:1827   */\n      mload\n        /* \"#utility.yul\":1805:1827   */\n      swap1\n      pop\n        /* \"#utility.yul\":1735:1834   */\n      swap2\n      swap1\n      pop\n      jump\t// out\n        /* \"#utility.yul\":1840:2009   */\n    tag_84:\n        /* \"#utility.yul\":1924:1935   */\n      0x00\n        /* \"#utility.yul\":1958:1964   */\n      dup3\n        /* \"#utility.yul\":1953:1956   */\n      dup3\n        /* \"#utility.yul\":1946:1965   */\n      mstore\n        /* \"#utility.yul\":1998:2002   */\n      0x20\n        /* \"#utility.yul\":1993:1996   */\n      dup3\n        /* \"#utility.yul\":1989:2003   */\n      add\n        /* \"#utility.yul\":1974:2003   */\n      swap1\n      pop\n        /* \"#utility.yul\":1840:2009   */\n      swap3\n      swap2\n      pop\n      pop\n      jump\t// out\n        /* \"#utility.yul\":2015:2261   */\n    tag_85:\n        /* \"#utility.yul\":2096:2097   */\n      0x00\n        /* \"#utility.yul\":2106:2219   */\n    tag_145:\n        /* \"#utility.yul\":2120:2126   */\n      dup4\n        /* \"#utility.yul\":2117:2118   */\n      dup2\n        /* \"#utility.yul\":2114:2127   */\n      lt\n        /* \"#utility.yul\":2106:2219   */\n      iszero\n      tag_147\n      jumpi\n        /* \"#utility.yul\":2205:2206   */\n      dup1\n        /* \"#utility.yul\":2200:2203   */\n      dup3\n        /* \"#utility.yul\":2196:2207   */\n      add\n        /* \"#utility.yul\":2190:2208   */\n      mload\n        /* \"#utility.yul\":2186:2187   */\n      dup2\n        /* \"#utility.yul\":2181:2184   */\n      dup5\n        /* \"#utility.yul\":2177:2188   */\n      add\n        /* \"#utility.yul\":2170:2209   */\n      mstore\n        /* \"#utility.yul\":2142:2144   */\n      0x20\n        /* \"#utility.yul\":2139:2140   */\n      dup2\n        /* \"#utility.yul\":2135:2145   */\n      add\n        /* \"#utility.yul\":2130:2145   */\n      swap1\n      pop\n        /* \"#utility.yul\":2106:2219   */\n      jump(tag_145)\n    tag_147:\n        /* \"#utility.yul\":2253:2254   */\n      0x00\n        /* \"#utility.yul\":2244:2250   */\n      dup5\n        /* \"#utility.yul\":2239:2242   */\n      dup5\n        /* \"#utility.yul\":2235:2251   */\n      add\n        /* \"#utility.yul\":2228:2255   */\n      mstore\n        /* \"#utility.yul\":2077:2261   */\n      pop\n        /* \"#utility.yul\":2015:2261   */\n      pop\n      pop\n      pop\n      jump\t// out\n        /* \"#utility.yul\":2267:2369   */\n    tag_86:\n        /* \"#utility.yul\":2308:2314   */\n      0x00\n        /* \"#utility.yul\":2359:2361   */\n      0x1f\n        /* \"#utility.yul\":2355:2362   */\n      not\n        /* \"#utility.yul\":2350:2352   */\n      0x1f\n        /* \"#utility.yul\":2343:2348   */\n      dup4\n        /* \"#utility.yul\":2339:2353   */\n      add\n        /* \"#utility.yul\":2335:2363   */\n      and\n        /* \"#utility.yul\":2325:2363   */\n      swap1\n      pop\n        /* \"#utility.yul\":2267:2369   */\n      swap2\n      swap1\n      pop\n      jump\t// out\n        /* \"#utility.yul\":2375:2752   */\n    tag_87:\n        /* \"#utility.yul\":2463:2466   */\n      0x00\n        /* \"#utility.yul\":2491:2530   */\n      tag_150\n        /* \"#utility.yul\":2524:2529   */\n      dup3\n        /* \"#utility.yul\":2491:2530   */\n      tag_83\n      jump\t// in\n    tag_150:\n        /* \"#utility.yul\":2546:2617   */\n      tag_151\n        /* \"#utility.yul\":2610:2616   */\n      dup2\n        /* \"#utility.yul\":2605:2608   */\n      dup6\n        /* \"#utility.yul\":2546:2617   */\n      tag_84\n      jump\t// in\n    tag_151:\n        /* \"#utility.yul\":2539:2617   */\n      swap4\n      pop\n        /* \"#utility.yul\":2626:2691   */\n      tag_152\n        /* \"#utility.yul\":2684:2690   */\n      dup2\n        /* \"#utility.yul\":2679:2682   */\n      dup6\n        /* \"#utility.yul\":2672:2676   */\n      0x20\n        /* \"#utility.yul\":2665:2670   */\n      dup7\n        /* \"#utility.yul\":2661:2677   */\n      add\n        /* \"#utility.yul\":2626:2691   */\n      tag_85\n      jump\t// in\n    tag_152:\n        /* \"#utility.yul\":2716:2745   */\n      tag_153\n        /* \"#utility.yul\":2738:2744   */\n      dup2\n        /* \"#utility.yul\":2716:2745   */\n      tag_86\n      jump\t// in\n    tag_153:\n        /* \"#utility.yul\":2711:2714   */\n      dup5\n        /* \"#utility.yul\":2707:2746   */\n      add\n        /* \"#utility.yul\":2700:2746   */\n      swap2\n      pop\n        /* \"#utility.yul\":2467:2752   */\n      pop\n        /* \"#utility.yul\":2375:2752   */\n      swap3\n      swap2\n      pop\n      pop\n      jump\t// out\n        /* \"#utility.yul\":2758:3291   */\n    tag_18:\n        /* \"#utility.yul\":2927:2931   */\n      0x00\n        /* \"#utility.yul\":2965:2967   */\n      0x60\n        /* \"#utility.yul\":2954:2963   */\n      dup3\n        /* \"#utility.yul\":2950:2968   */\n      add\n        /* \"#utility.yul\":2942:2968   */\n      swap1\n      pop\n        /* \"#utility.yul\":2978:3049   */\n      tag_155\n        /* \"#utility.yul\":3046:3047   */\n      0x00\n        /* \"#utility.yul\":3035:3044   */\n      dup4\n        /* \"#utility.yul\":3031:3048   */\n      add\n        /* \"#utility.yul\":3022:3028   */\n      dup7\n        /* \"#utility.yul\":2978:3049   */\n      tag_82\n      jump\t// in\n    tag_155:\n        /* \"#utility.yul\":3096:3105   */\n      dup2\n        /* \"#utility.yul\":3090:3094   */\n      dup2\n        /* \"#utility.yul\":3086:3106   */\n      sub\n        /* \"#utility.yul\":3081:3083   */\n      0x20\n        /* \"#utility.yul\":3070:3079   */\n      dup4\n        /* \"#utility.yul\":3066:3084   */\n      add\n        /* \"#utility.yul\":3059:3107   */\n      mstore\n        /* \"#utility.yul\":3124:3202   */\n      tag_156\n        /* \"#utility.yul\":3197:3201   */\n      dup2\n        /* \"#utility.yul\":3188:3194   */\n      dup6\n        /* \"#utility.yul\":3124:3202   */\n      tag_87\n      jump\t// in\n    tag_156:\n        /* \"#utility.yul\":3116:3202   */\n      swap1\n      pop\n        /* \"#utility.yul\":3212:3284   */\n      tag_157\n        /* \"#utility.yul\":3280:3282   */\n      0x40\n        /* \"#utility.yul\":3269:3278   */\n      dup4\n        /* \"#utility.yul\":3265:3283   */\n      add\n        /* \"#utility.yul\":3256:3262   */\n      dup5\n        /* \"#utility.yul\":3212:3284   */\n      tag_82\n      jump\t// in\n    tag_157:\n        /* \"#utility.yul\":2758:3291   */\n      swap5\n      swap4\n      pop\n      pop\n      pop\n      pop\n      jump\t// out\n        /* \"#utility.yul\":3297:3771   */\n    tag_21:\n        /* \"#utility.yul\":3365:3371   */\n      0x00\n        /* \"#utility.yul\":3373:3379   */\n      dup1\n        /* \"#utility.yul\":3422:3424   */\n      0x40\n        /* \"#utility.yul\":3410:3419   */\n      dup4\n        /* \"#utility.yul\":3401:3408   */\n      dup6\n        /* \"#utility.yul\":3397:3420   */\n      sub\n        /* \"#utility.yul\":3393:3425   */\n      slt\n        /* \"#utility.yul\":3390:3509   */\n      iszero\n      tag_159\n      jumpi\n        /* \"#utility.yul\":3428:3507   */\n      tag_160\n      tag_77\n      jump\t// in\n    tag_160:\n        /* \"#utility.yul\":3390:3509   */\n    tag_159:\n        /* \"#utility.yul\":3548:3549   */\n      0x00\n        /* \"#utility.yul\":3573:3626   */\n      tag_161\n        /* \"#utility.yul\":3618:3625   */\n      dup6\n        /* \"#utility.yul\":3609:3615   */\n      dup3\n        /* \"#utility.yul\":3598:3607   */\n      dup7\n        /* \"#utility.yul\":3594:3616   */\n      add\n        /* \"#utility.yul\":3573:3626   */\n      tag_81\n      jump\t// in\n    tag_161:\n        /* \"#utility.yul\":3563:3626   */\n      swap3\n      pop\n        /* \"#utility.yul\":3519:3636   */\n      pop\n        /* \"#utility.yul\":3675:3677   */\n      0x20\n        /* \"#utility.yul\":3701:3754   */\n      tag_162\n        /* \"#utility.yul\":3746:3753   */\n      dup6\n        /* \"#utility.yul\":3737:3743   */\n      dup3\n        /* \"#utility.yul\":3726:3735   */\n      dup7\n        /* \"#utility.yul\":3722:3744   */\n      add\n        /* \"#utility.yul\":3701:3754   */\n      tag_81\n      jump\t// in\n    tag_162:\n        /* \"#utility.yul\":3691:3754   */\n      swap2\n      pop\n        /* \"#utility.yul\":3646:3764   */\n      pop\n        /* \"#utility.yul\":3297:3771   */\n      swap3\n      pop\n      swap3\n      swap1\n      pop\n      jump\t// out\n        /* \"#utility.yul\":3777:3894   */\n    tag_88:\n        /* \"#utility.yul\":3886:3887   */\n      0x00\n        /* \"#utility.yul\":3883:3884   */\n      dup1\n        /* \"#utility.yul\":3876:3888   */\n      revert\n        /* \"#utility.yul\":3900:4017   */\n    tag_89:\n        /* \"#utility.yul\":4009:4010   */\n      0x00\n        /* \"#utility.yul\":4006:4007   */\n      dup1\n        /* \"#utility.yul\":3999:4011   */\n      revert\n        /* \"#utility.yul\":4023:4203   */\n    tag_90:\n        /* \"#utility.yul\":4071:4148   */\n      0x4e487b7100000000000000000000000000000000000000000000000000000000\n        /* \"#utility.yul\":4068:4069   */\n      0x00\n        /* \"#utility.yul\":4061:4149   */\n      mstore\n        /* \"#utility.yul\":4168:4172   */\n      0x41\n        /* \"#utility.yul\":4165:4166   */\n      0x04\n        /* \"#utility.yul\":4158:4173   */\n      mstore\n        /* \"#utility.yul\":4192:4196   */\n      0x24\n        /* \"#utility.yul\":4189:4190   */\n      0x00\n        /* \"#utility.yul\":4182:4197   */\n      revert\n        /* \"#utility.yul\":4209:4490   */\n    tag_91:\n        /* \"#utility.yul\":4292:4319   */\n      tag_167\n        /* \"#utility.yul\":4314:4318   */\n      dup3\n        /* \"#utility.yul\":4292:4319   */\n      tag_86\n      jump\t// in\n    tag_167:\n        /* \"#utility.yul\":4284:4290   */\n      dup2\n        /* \"#utility.yul\":4280:4320   */\n      add\n        /* \"#utility.yul\":4422:4428   */\n      dup2\n        /* \"#utility.yul\":4410:4420   */\n      dup2\n        /* \"#utility.yul\":4407:4429   */\n      lt\n        /* \"#utility.yul\":4386:4404   */\n      0xffffffffffffffff\n        /* \"#utility.yul\":4374:4384   */\n      dup3\n        /* \"#utility.yul\":4371:4405   */\n      gt\n        /* \"#utility.yul\":4368:4430   */\n      or\n        /* \"#utility.yul\":4365:4453   */\n      iszero\n      tag_168\n      jumpi\n        /* \"#utility.yul\":4433:4451   */\n      tag_169\n      tag_90\n      jump\t// in\n    tag_169:\n        /* \"#utility.yul\":4365:4453   */\n    tag_168:\n        /* \"#utility.yul\":4473:4483   */\n      dup1\n        /* \"#utility.yul\":4469:4471   */\n      0x40\n        /* \"#utility.yul\":4462:4484   */\n      mstore\n        /* \"#utility.yul\":4252:4490   */\n      pop\n        /* \"#utility.yul\":4209:4490   */\n      pop\n      pop\n      jump\t// out\n        /* \"#utility.yul\":4496:4625   */\n    tag_92:\n        /* \"#utility.yul\":4530:4536   */\n      0x00\n        /* \"#utility.yul\":4557:4577   */\n      tag_171\n      tag_76\n      jump\t// in\n    tag_171:\n        /* \"#utility.yul\":4547:4577   */\n      swap1\n      pop\n        /* \"#utility.yul\":4586:4619   */\n      tag_172\n        /* \"#utility.yul\":4614:4618   */\n      dup3\n        /* \"#utility.yul\":4606:4612   */\n      dup3\n        /* \"#utility.yul\":4586:4619   */\n      tag_91\n      jump\t// in\n    tag_172:\n        /* \"#utility.yul\":4496:4625   */\n      swap2\n      swap1\n      pop\n      jump\t// out\n        /* \"#utility.yul\":4631:4939   */\n    tag_93:\n        /* \"#utility.yul\":4693:4697   */\n      0x00\n        /* \"#utility.yul\":4783:4801   */\n      0xffffffffffffffff\n        /* \"#utility.yul\":4775:4781   */\n      dup3\n        /* \"#utility.yul\":4772:4802   */\n      gt\n        /* \"#utility.yul\":4769:4825   */\n      iszero\n      tag_174\n      jumpi\n        /* \"#utility.yul\":4805:4823   */\n      tag_175\n      tag_90\n      jump\t// in\n    tag_175:\n        /* \"#utility.yul\":4769:4825   */\n    tag_174:\n        /* \"#utility.yul\":4843:4872   */\n      tag_176\n        /* \"#utility.yul\":4865:4871   */\n      dup3\n        /* \"#utility.yul\":4843:4872   */\n      tag_86\n      jump\t// in\n    tag_176:\n        /* \"#utility.yul\":4835:4872   */\n      swap1\n      pop\n        /* \"#utility.yul\":4927:4931   */\n      0x20\n        /* \"#utility.yul\":4921:4925   */\n      dup2\n        /* \"#utility.yul\":4917:4932   */\n      add\n        /* \"#utility.yul\":4909:4932   */\n      swap1\n      pop\n        /* \"#utility.yul\":4631:4939   */\n      swap2\n      swap1\n      pop\n      jump\t// out\n        /* \"#utility.yul\":4945:5091   */\n    tag_94:\n        /* \"#utility.yul\":5042:5048   */\n      dup3\n        /* \"#utility.yul\":5037:5040   */\n      dup2\n        /* \"#utility.yul\":5032:5035   */\n      dup4\n        /* \"#utility.yul\":5019:5049   */\n      calldatacopy\n        /* \"#utility.yul\":5083:5084   */\n      0x00\n        /* \"#utility.yul\":5074:5080   */\n      dup4\n        /* \"#utility.yul\":5069:5072   */\n      dup4\n        /* \"#utility.yul\":5065:5081   */\n      add\n        /* \"#utility.yul\":5058:5085   */\n      mstore\n        /* \"#utility.yul\":4945:5091   */\n      pop\n      pop\n      pop\n      jump\t// out\n        /* \"#utility.yul\":5097:5522   */\n    tag_95:\n        /* \"#utility.yul\":5175:5180   */\n      0x00\n        /* \"#utility.yul\":5200:5266   */\n      tag_179\n        /* \"#utility.yul\":5216:5265   */\n      tag_180\n        /* \"#utility.yul\":5258:5264   */\n      dup5\n        /* \"#utility.yul\":5216:5265   */\n      tag_93\n      jump\t// in\n    tag_180:\n        /* \"#utility.yul\":5200:5266   */\n      tag_92\n      jump\t// in\n    tag_179:\n        /* \"#utility.yul\":5191:5266   */\n      swap1\n      pop\n        /* \"#utility.yul\":5289:5295   */\n      dup3\n        /* \"#utility.yul\":5282:5287   */\n      dup2\n        /* \"#utility.yul\":5275:5296   */\n      mstore\n        /* \"#utility.yul\":5327:5331   */\n      0x20\n        /* \"#utility.yul\":5320:5325   */\n      dup2\n        /* \"#utility.yul\":5316:5332   */\n      add\n        /* \"#utility.yul\":5365:5368   */\n      dup5\n        /* \"#utility.yul\":5356:5362   */\n      dup5\n        /* \"#utility.yul\":5351:5354   */\n      dup5\n        /* \"#utility.yul\":5347:5363   */\n      add\n        /* \"#utility.yul\":5344:5369   */\n      gt\n        /* \"#utility.yul\":5341:5453   */\n      iszero\n      tag_181\n      jumpi\n        /* \"#utility.yul\":5372:5451   */\n      tag_182\n      tag_89\n      jump\t// in\n    tag_182:\n        /* \"#utility.yul\":5341:5453   */\n    tag_181:\n        /* \"#utility.yul\":5462:5516   */\n      tag_183\n        /* \"#utility.yul\":5509:5515   */\n      dup5\n        /* \"#utility.yul\":5504:5507   */\n      dup3\n        /* \"#utility.yul\":5499:5502   */\n      dup6\n        /* \"#utility.yul\":5462:5516   */\n      tag_94\n      jump\t// in\n    tag_183:\n        /* \"#utility.yul\":5181:5522   */\n      pop\n        /* \"#utility.yul\":5097:5522   */\n      swap4\n      swap3\n      pop\n      pop\n      pop\n      jump\t// out\n        /* \"#utility.yul\":5542:5882   */\n    tag_96:\n        /* \"#utility.yul\":5598:5603   */\n      0x00\n        /* \"#utility.yul\":5647:5650   */\n      dup3\n        /* \"#utility.yul\":5640:5644   */\n      0x1f\n        /* \"#utility.yul\":5632:5638   */\n      dup4\n        /* \"#utility.yul\":5628:5645   */\n      add\n        /* \"#utility.yul\":5624:5651   */\n      slt\n        /* \"#utility.yul\":5614:5736   */\n      tag_185\n      jumpi\n        /* \"#utility.yul\":5655:5734   */\n      tag_186\n      tag_88\n      jump\t// in\n    tag_186:\n        /* \"#utility.yul\":5614:5736   */\n    tag_185:\n        /* \"#utility.yul\":5772:5778   */\n      dup2\n        /* \"#utility.yul\":5759:5779   */\n      calldataload\n        /* \"#utility.yul\":5797:5876   */\n      tag_187\n        /* \"#utility.yul\":5872:5875   */\n      dup5\n        /* \"#utility.yul\":5864:5870   */\n      dup3\n        /* \"#utility.yul\":5857:5861   */\n      0x20\n        /* \"#utility.yul\":5849:5855   */\n      dup7\n        /* \"#utility.yul\":5845:5862   */\n      add\n        /* \"#utility.yul\":5797:5876   */\n      tag_95\n      jump\t// in\n    tag_187:\n        /* \"#utility.yul\":5788:5876   */\n      swap2\n      pop\n        /* \"#utility.yul\":5604:5882   */\n      pop\n        /* \"#utility.yul\":5542:5882   */\n      swap3\n      swap2\n      pop\n      pop\n      jump\t// out\n        /* \"#utility.yul\":5888:6687   */\n    tag_32:\n        /* \"#utility.yul\":5975:5981   */\n      0x00\n        /* \"#utility.yul\":5983:5989   */\n      dup1\n        /* \"#utility.yul\":5991:5997   */\n      0x00\n        /* \"#utility.yul\":6040:6042   */\n      0x60\n        /* \"#utility.yul\":6028:6037   */\n      dup5\n        /* \"#utility.yul\":6019:6026   */\n      dup7\n        /* \"#utility.yul\":6015:6038   */\n      sub\n        /* \"#utility.yul\":6011:6043   */\n      slt\n        /* \"#utility.yul\":6008:6127   */\n      iszero\n      tag_189\n      jumpi\n        /* \"#utility.yul\":6046:6125   */\n      tag_190\n      tag_77\n      jump\t// in\n    tag_190:\n        /* \"#utility.yul\":6008:6127   */\n    tag_189:\n        /* \"#utility.yul\":6166:6167   */\n      0x00\n        /* \"#utility.yul\":6191:6244   */\n      tag_191\n        /* \"#utility.yul\":6236:6243   */\n      dup7\n        /* \"#utility.yul\":6227:6233   */\n      dup3\n        /* \"#utility.yul\":6216:6225   */\n      dup8\n        /* \"#utility.yul\":6212:6234   */\n      add\n        /* \"#utility.yul\":6191:6244   */\n      tag_81\n      jump\t// in\n    tag_191:\n        /* \"#utility.yul\":6181:6244   */\n      swap4\n      pop\n        /* \"#utility.yul\":6137:6254   */\n      pop\n        /* \"#utility.yul\":6321:6323   */\n      0x20\n        /* \"#utility.yul\":6310:6319   */\n      dup5\n        /* \"#utility.yul\":6306:6324   */\n      add\n        /* \"#utility.yul\":6293:6325   */\n      calldataload\n        /* \"#utility.yul\":6352:6370   */\n      0xffffffffffffffff\n        /* \"#utility.yul\":6344:6350   */\n      dup2\n        /* \"#utility.yul\":6341:6371   */\n      gt\n        /* \"#utility.yul\":6338:6455   */\n      iszero\n      tag_192\n      jumpi\n        /* \"#utility.yul\":6374:6453   */\n      tag_193\n      tag_78\n      jump\t// in\n    tag_193:\n        /* \"#utility.yul\":6338:6455   */\n    tag_192:\n        /* \"#utility.yul\":6479:6542   */\n      tag_194\n        /* \"#utility.yul\":6534:6541   */\n      dup7\n        /* \"#utility.yul\":6525:6531   */\n      dup3\n        /* \"#utility.yul\":6514:6523   */\n      dup8\n        /* \"#utility.yul\":6510:6532   */\n      add\n        /* \"#utility.yul\":6479:6542   */\n      tag_96\n      jump\t// in\n    tag_194:\n        /* \"#utility.yul\":6469:6542   */\n      swap3\n      pop\n        /* \"#utility.yul\":6264:6552   */\n      pop\n        /* \"#utility.yul\":6591:6593   */\n      0x40\n        /* \"#utility.yul\":6617:6670   */\n      tag_195\n        /* \"#utility.yul\":6662:6669   */\n      dup7\n        /* \"#utility.yul\":6653:6659   */\n      dup3\n        /* \"#utility.yul\":6642:6651   */\n      dup8\n        /* \"#utility.yul\":6638:6660   */\n      add\n        /* \"#utility.yul\":6617:6670   */\n      tag_81\n      jump\t// in\n    tag_195:\n        /* \"#utility.yul\":6607:6670   */\n      swap2\n      pop\n        /* \"#utility.yul\":6562:6680   */\n      pop\n        /* \"#utility.yul\":5888:6687   */\n      swap3\n      pop\n      swap3\n      pop\n      swap3\n      jump\t// out\n        /* \"#utility.yul\":6693:6864   */\n    tag_97:\n        /* \"#utility.yul\":6833:6856   */\n      0x456c20656d706c6561646f206e6f206578697374650000000000000000000000\n        /* \"#utility.yul\":6829:6830   */\n      0x00\n        /* \"#utility.yul\":6821:6827   */\n      dup3\n        /* \"#utility.yul\":6817:6831   */\n      add\n        /* \"#utility.yul\":6810:6857   */\n      mstore\n        /* \"#utility.yul\":6693:6864   */\n      pop\n      jump\t// out\n        /* \"#utility.yul\":6870:7236   */\n    tag_98:\n        /* \"#utility.yul\":7012:7015   */\n      0x00\n        /* \"#utility.yul\":7033:7100   */\n      tag_198\n        /* \"#utility.yul\":7097:7099   */\n      0x15\n        /* \"#utility.yul\":7092:7095   */\n      dup4\n        /* \"#utility.yul\":7033:7100   */\n      tag_84\n      jump\t// in\n    tag_198:\n        /* \"#utility.yul\":7026:7100   */\n      swap2\n      pop\n        /* \"#utility.yul\":7109:7202   */\n      tag_199\n        /* \"#utility.yul\":7198:7201   */\n      dup3\n        /* \"#utility.yul\":7109:7202   */\n      tag_97\n      jump\t// in\n    tag_199:\n        /* \"#utility.yul\":7227:7229   */\n      0x20\n        /* \"#utility.yul\":7222:7225   */\n      dup3\n        /* \"#utility.yul\":7218:7230   */\n      add\n        /* \"#utility.yul\":7211:7230   */\n      swap1\n      pop\n        /* \"#utility.yul\":6870:7236   */\n      swap2\n      swap1\n      pop\n      jump\t// out\n        /* \"#utility.yul\":7242:7661   */\n    tag_37:\n        /* \"#utility.yul\":7408:7412   */\n      0x00\n        /* \"#utility.yul\":7446:7448   */\n      0x20\n        /* \"#utility.yul\":7435:7444   */\n      dup3\n        /* \"#utility.yul\":7431:7449   */\n      add\n        /* \"#utility.yul\":7423:7449   */\n      swap1\n      pop\n        /* \"#utility.yul\":7495:7504   */\n      dup2\n        /* \"#utility.yul\":7489:7493   */\n      dup2\n        /* \"#utility.yul\":7485:7505   */\n      sub\n        /* \"#utility.yul\":7481:7482   */\n      0x00\n        /* \"#utility.yul\":7470:7479   */\n      dup4\n        /* \"#utility.yul\":7466:7483   */\n      add\n        /* \"#utility.yul\":7459:7506   */\n      mstore\n        /* \"#utility.yul\":7523:7654   */\n      tag_201\n        /* \"#utility.yul\":7649:7653   */\n      dup2\n        /* \"#utility.yul\":7523:7654   */\n      tag_98\n      jump\t// in\n    tag_201:\n        /* \"#utility.yul\":7515:7654   */\n      swap1\n      pop\n        /* \"#utility.yul\":7242:7661   */\n      swap2\n      swap1\n      pop\n      jump\t// out\n        /* \"#utility.yul\":7667:7847   */\n    tag_99:\n        /* \"#utility.yul\":7715:7792   */\n      0x4e487b7100000000000000000000000000000000000000000000000000000000\n        /* \"#utility.yul\":7712:7713   */\n      0x00\n        /* \"#utility.yul\":7705:7793   */\n      mstore\n        /* \"#utility.yul\":7812:7816   */\n      0x22\n        /* \"#utility.yul\":7809:7810   */\n      0x04\n        /* \"#utility.yul\":7802:7817   */\n      mstore\n        /* \"#utility.yul\":7836:7840   */\n      0x24\n        /* \"#utility.yul\":7833:7834   */\n      0x00\n        /* \"#utility.yul\":7826:7841   */\n      revert\n        /* \"#utility.yul\":7853:8173   */\n    tag_39:\n        /* \"#utility.yul\":7897:7903   */\n      0x00\n        /* \"#utility.yul\":7934:7935   */\n      0x02\n        /* \"#utility.yul\":7928:7932   */\n      dup3\n        /* \"#utility.yul\":7924:7936   */\n      div\n        /* \"#utility.yul\":7914:7936   */\n      swap1\n      pop\n        /* \"#utility.yul\":7981:7982   */\n      0x01\n        /* \"#utility.yul\":7975:7979   */\n      dup3\n        /* \"#utility.yul\":7971:7983   */\n      and\n        /* \"#utility.yul\":8002:8020   */\n      dup1\n        /* \"#utility.yul\":7992:8073   */\n      tag_204\n      jumpi\n        /* \"#utility.yul\":8058:8062   */\n      0x7f\n        /* \"#utility.yul\":8050:8056   */\n      dup3\n        /* \"#utility.yul\":8046:8063   */\n      and\n        /* \"#utility.yul\":8036:8063   */\n      swap2\n      pop\n        /* \"#utility.yul\":7992:8073   */\n    tag_204:\n        /* \"#utility.yul\":8120:8122   */\n      0x20\n        /* \"#utility.yul\":8112:8118   */\n      dup3\n        /* \"#utility.yul\":8109:8123   */\n      lt\n        /* \"#utility.yul\":8089:8107   */\n      dup2\n        /* \"#utility.yul\":8086:8124   */\n      sub\n        /* \"#utility.yul\":8083:8167   */\n      tag_205\n      jumpi\n        /* \"#utility.yul\":8139:8157   */\n      tag_206\n      tag_99\n      jump\t// in\n    tag_206:\n        /* \"#utility.yul\":8083:8167   */\n    tag_205:\n        /* \"#utility.yul\":7904:8173   */\n      pop\n        /* \"#utility.yul\":7853:8173   */\n      swap2\n      swap1\n      pop\n      jump\t// out\n        /* \"#utility.yul\":8179:8351   */\n    tag_100:\n        /* \"#utility.yul\":8319:8343   */\n      0x4e6f206572657320656c2070726f706965746172696f00000000000000000000\n        /* \"#utility.yul\":8315:8316   */\n      0x00\n        /* \"#utility.yul\":8307:8313   */\n      dup3\n        /* \"#utility.yul\":8303:8317   */\n      add\n        /* \"#utility.yul\":8296:8344   */\n      mstore\n        /* \"#utility.yul\":8179:8351   */\n      pop\n      jump\t// out\n        /* \"#utility.yul\":8357:8723   */\n    tag_101:\n        /* \"#utility.yul\":8499:8502   */\n      0x00\n        /* \"#utility.yul\":8520:8587   */\n      tag_209\n        /* \"#utility.yul\":8584:8586   */\n      0x16\n        /* \"#utility.yul\":8579:8582   */\n      dup4\n        /* \"#utility.yul\":8520:8587   */\n      tag_84\n      jump\t// in\n    tag_209:\n        /* \"#utility.yul\":8513:8587   */\n      swap2\n      pop\n        /* \"#utility.yul\":8596:8689   */\n      tag_210\n        /* \"#utility.yul\":8685:8688   */\n      dup3\n        /* \"#utility.yul\":8596:8689   */\n      tag_100\n      jump\t// in\n    tag_210:\n        /* \"#utility.yul\":8714:8716   */\n      0x20\n        /* \"#utility.yul\":8709:8712   */\n      dup3\n        /* \"#utility.yul\":8705:8717   */\n      add\n        /* \"#utility.yul\":8698:8717   */\n      swap1\n      pop\n        /* \"#utility.yul\":8357:8723   */\n      swap2\n      swap1\n      pop\n      jump\t// out\n        /* \"#utility.yul\":8729:9148   */\n    tag_60:\n        /* \"#utility.yul\":8895:8899   */\n      0x00\n        /* \"#utility.yul\":8933:8935   */\n      0x20\n        /* \"#utility.yul\":8922:8931   */\n      dup3\n        /* \"#utility.yul\":8918:8936   */\n      add\n        /* \"#utility.yul\":8910:8936   */\n      swap1\n      pop\n        /* \"#utility.yul\":8982:8991   */\n      dup2\n        /* \"#utility.yul\":8976:8980   */\n      dup2\n        /* \"#utility.yul\":8972:8992   */\n      sub\n        /* \"#utility.yul\":8968:8969   */\n      0x00\n        /* \"#utility.yul\":8957:8966   */\n      dup4\n        /* \"#utility.yul\":8953:8970   */\n      add\n        /* \"#utility.yul\":8946:8993   */\n      mstore\n        /* \"#utility.yul\":9010:9141   */\n      tag_212\n        /* \"#utility.yul\":9136:9140   */\n      dup2\n        /* \"#utility.yul\":9010:9141   */\n      tag_101\n      jump\t// in\n    tag_212:\n        /* \"#utility.yul\":9002:9141   */\n      swap1\n      pop\n        /* \"#utility.yul\":8729:9148   */\n      swap2\n      swap1\n      pop\n      jump\t// out\n        /* \"#utility.yul\":9154:9325   */\n    tag_102:\n        /* \"#utility.yul\":9294:9317   */\n      0x456c20656d706c6561646f207961206578697374650000000000000000000000\n        /* \"#utility.yul\":9290:9291   */\n      0x00\n        /* \"#utility.yul\":9282:9288   */\n      dup3\n        /* \"#utility.yul\":9278:9292   */\n      add\n        /* \"#utility.yul\":9271:9318   */\n      mstore\n        /* \"#utility.yul\":9154:9325   */\n      pop\n      jump\t// out\n        /* \"#utility.yul\":9331:9697   */\n    tag_103:\n        /* \"#utility.yul\":9473:9476   */\n      0x00\n        /* \"#utility.yul\":9494:9561   */\n      tag_215\n        /* \"#utility.yul\":9558:9560   */\n      0x15\n        /* \"#utility.yul\":9553:9556   */\n      dup4\n        /* \"#utility.yul\":9494:9561   */\n      tag_84\n      jump\t// in\n    tag_215:\n        /* \"#utility.yul\":9487:9561   */\n      swap2\n      pop\n        /* \"#utility.yul\":9570:9663   */\n      tag_216\n        /* \"#utility.yul\":9659:9662   */\n      dup3\n        /* \"#utility.yul\":9570:9663   */\n      tag_102\n      jump\t// in\n    tag_216:\n        /* \"#utility.yul\":9688:9690   */\n      0x20\n        /* \"#utility.yul\":9683:9686   */\n      dup3\n        /* \"#utility.yul\":9679:9691   */\n      add\n        /* \"#utility.yul\":9672:9691   */\n      swap1\n      pop\n        /* \"#utility.yul\":9331:9697   */\n      swap2\n      swap1\n      pop\n      jump\t// out\n        /* \"#utility.yul\":9703:10122   */\n    tag_63:\n        /* \"#utility.yul\":9869:9873   */\n      0x00\n        /* \"#utility.yul\":9907:9909   */\n      0x20\n        /* \"#utility.yul\":9896:9905   */\n      dup3\n        /* \"#utility.yul\":9892:9910   */\n      add\n        /* \"#utility.yul\":9884:9910   */\n      swap1\n      pop\n        /* \"#utility.yul\":9956:9965   */\n      dup2\n        /* \"#utility.yul\":9950:9954   */\n      dup2\n        /* \"#utility.yul\":9946:9966   */\n      sub\n        /* \"#utility.yul\":9942:9943   */\n      0x00\n        /* \"#utility.yul\":9931:9940   */\n      dup4\n        /* \"#utility.yul\":9927:9944   */\n      add\n        /* \"#utility.yul\":9920:9967   */\n      mstore\n        /* \"#utility.yul\":9984:10115   */\n      tag_218\n        /* \"#utility.yul\":10110:10114   */\n      dup2\n        /* \"#utility.yul\":9984:10115   */\n      tag_103\n      jump\t// in\n    tag_218:\n        /* \"#utility.yul\":9976:10115   */\n      swap1\n      pop\n        /* \"#utility.yul\":9703:10122   */\n      swap2\n      swap1\n      pop\n      jump\t// out\n        /* \"#utility.yul\":10128:10269   */\n    tag_104:\n        /* \"#utility.yul\":10177:10181   */\n      0x00\n        /* \"#utility.yul\":10200:10203   */\n      dup2\n        /* \"#utility.yul\":10192:10203   */\n      swap1\n      pop\n        /* \"#utility.yul\":10223:10226   */\n      dup2\n        /* \"#utility.yul\":10220:10221   */\n      0x00\n        /* \"#utility.yul\":10213:10227   */\n      mstore\n        /* \"#utility.yul\":10257:10261   */\n      0x20\n        /* \"#utility.yul\":10254:10255   */\n      0x00\n        /* \"#utility.yul\":10244:10262   */\n      keccak256\n        /* \"#utility.yul\":10236:10262   */\n      swap1\n      pop\n        /* \"#utility.yul\":10128:10269   */\n      swap2\n      swap1\n      pop\n      jump\t// out\n        /* \"#utility.yul\":10275:10368   */\n    tag_105:\n        /* \"#utility.yul\":10312:10318   */\n      0x00\n        /* \"#utility.yul\":10359:10361   */\n      0x20\n        /* \"#utility.yul\":10354:10356   */\n      0x1f\n        /* \"#utility.yul\":10347:10352   */\n      dup4\n        /* \"#utility.yul\":10343:10357   */\n      add\n        /* \"#utility.yul\":10339:10362   */\n      div\n        /* \"#utility.yul\":10329:10362   */\n      swap1\n      pop\n        /* \"#utility.yul\":10275:10368   */\n      swap2\n      swap1\n      pop\n      jump\t// out\n        /* \"#utility.yul\":10374:10481   */\n    tag_106:\n        /* \"#utility.yul\":10418:10426   */\n      0x00\n        /* \"#utility.yul\":10468:10473   */\n      dup3\n        /* \"#utility.yul\":10462:10466   */\n      dup3\n        /* \"#utility.yul\":10458:10474   */\n      shl\n        /* \"#utility.yul\":10437:10474   */\n      swap1\n      pop\n        /* \"#utility.yul\":10374:10481   */\n      swap3\n      swap2\n      pop\n      pop\n      jump\t// out\n        /* \"#utility.yul\":10487:10880   */\n    tag_107:\n        /* \"#utility.yul\":10556:10562   */\n      0x00\n        /* \"#utility.yul\":10606:10607   */\n      0x08\n        /* \"#utility.yul\":10594:10604   */\n      dup4\n        /* \"#utility.yul\":10590:10608   */\n      mul\n        /* \"#utility.yul\":10629:10726   */\n      tag_223\n        /* \"#utility.yul\":10659:10725   */\n      0xffffffffffffffffffffffffffffffffffffffffffffffffffffffffffffffff\n        /* \"#utility.yul\":10648:10657   */\n      dup3\n        /* \"#utility.yul\":10629:10726   */\n      tag_106\n      jump\t// in\n    tag_223:\n        /* \"#utility.yul\":10747:10786   */\n      tag_224\n        /* \"#utility.yul\":10777:10785   */\n      dup7\n        /* \"#utility.yul\":10766:10775   */\n      dup4\n        /* \"#utility.yul\":10747:10786   */\n      tag_106\n      jump\t// in\n    tag_224:\n        /* \"#utility.yul\":10735:10786   */\n      swap6\n      pop\n        /* \"#utility.yul\":10819:10823   */\n      dup1\n        /* \"#utility.yul\":10815:10824   */\n      not\n        /* \"#utility.yul\":10808:10813   */\n      dup5\n        /* \"#utility.yul\":10804:10825   */\n      and\n        /* \"#utility.yul\":10795:10825   */\n      swap4\n      pop\n        /* \"#utility.yul\":10868:10872   */\n      dup1\n        /* \"#utility.yul\":10858:10866   */\n      dup7\n        /* \"#utility.yul\":10854:10873   */\n      and\n        /* \"#utility.yul\":10847:10852   */\n      dup5\n        /* \"#utility.yul\":10844:10874   */\n      or\n        /* \"#utility.yul\":10834:10874   */\n      swap3\n      pop\n        /* \"#utility.yul\":10563:10880   */\n      pop\n      pop\n        /* \"#utility.yul\":10487:10880   */\n      swap4\n      swap3\n      pop\n      pop\n      pop\n      jump\t// out\n        /* \"#utility.yul\":10886:10946   */\n    tag_108:\n        /* \"#utility.yul\":10914:10917   */\n      0x00\n        /* \"#utility.yul\":10935:10940   */\n      dup2\n        /* \"#utility.yul\":10928:10940   */\n      swap1\n      pop\n        /* \"#utility.yul\":10886:10946   */\n      swap2\n      swap1\n      pop\n      jump\t// out\n        /* \"#utility.yul\":10952:11094   */\n    tag_109:\n        /* \"#utility.yul\":11002:11011   */\n      0x00\n        /* \"#utility.yul\":11035:11088   */\n      tag_227\n        /* \"#utility.yul\":11053:11087   */\n      tag_228\n        /* \"#utility.yul\":11062:11086   */\n      tag_229\n        /* \"#utility.yul\":11080:11085   */\n      dup5\n        /* \"#utility.yul\":11062:11086   */\n      tag_79\n      jump\t// in\n    tag_229:\n        /* \"#utility.yul\":11053:11087   */\n      tag_108\n      jump\t// in\n    tag_228:\n        /* \"#utility.yul\":11035:11088   */\n      tag_79\n      jump\t// in\n    tag_227:\n        /* \"#utility.yul\":11022:11088   */\n      swap1\n      pop\n        /* \"#utility.yul\":10952:11094   */\n      swap2\n      swap1\n      pop\n      jump\t// out\n        /* \"#utility.yul\":11100:11175   */\n    tag_110:\n        /* \"#utility.yul\":11143:11146   */\n      0x00\n        /* \"#utility.yul\":11164:11169   */\n      dup2\n        /* \"#utility.yul\":11157:11169   */\n      swap1\n      pop\n        /* \"#utility.yul\":11100:11175   */\n      swap2\n      swap1\n      pop\n      jump\t// out\n        /* \"#utility.yul\":11181:11450   */\n    tag_111:\n        /* \"#utility.yul\":11291:11330   */\n      tag_232\n        /* \"#utility.yul\":11322:11329   */\n      dup4\n        /* \"#utility.yul\":11291:11330   */\n      tag_109\n      jump\t// in\n    tag_232:\n        /* \"#utility.yul\":11352:11443   */\n      tag_233\n        /* \"#utility.yul\":11401:11442   */\n      tag_234\n        /* \"#utility.yul\":11425:11441   */\n      dup3\n        /* \"#utility.yul\":11401:11442   */\n      tag_110\n      jump\t// in\n    tag_234:\n        /* \"#utility.yul\":11393:11399   */\n      dup5\n        /* \"#utility.yul\":11386:11390   */\n      dup5\n        /* \"#utility.yul\":11380:11391   */\n      sload\n        /* \"#utility.yul\":11352:11443   */\n      tag_107\n      jump\t// in\n    tag_233:\n        /* \"#utility.yul\":11346:11350   */\n      dup3\n        /* \"#utility.yul\":11339:11444   */\n      sstore\n        /* \"#utility.yul\":11257:11450   */\n      pop\n        /* \"#utility.yul\":11181:11450   */\n      pop\n      pop\n      pop\n      jump\t// out\n        /* \"#utility.yul\":11456:11529   */\n    tag_112:\n        /* \"#utility.yul\":11501:11504   */\n      0x00\n        /* \"#utility.yul\":11456:11529   */\n      swap1\n      jump\t// out\n        /* \"#utility.yul\":11535:11724   */\n    tag_113:\n        /* \"#utility.yul\":11612:11644   */\n      tag_237\n      tag_112\n      jump\t// in\n    tag_237:\n        /* \"#utility.yul\":11653:11718   */\n      tag_238\n        /* \"#utility.yul\":11711:11717   */\n      dup2\n        /* \"#utility.yul\":11703:11709   */\n      dup5\n        /* \"#utility.yul\":11697:11701   */\n      dup5\n        /* \"#utility.yul\":11653:11718   */\n      tag_111\n      jump\t// in\n    tag_238:\n        /* \"#utility.yul\":11588:11724   */\n      pop\n        /* \"#utility.yul\":11535:11724   */\n      pop\n      pop\n      jump\t// out\n        /* \"#utility.yul\":11730:11916   */\n    tag_114:\n        /* \"#utility.yul\":11790:11910   */\n    tag_240:\n        /* \"#utility.yul\":11807:11810   */\n      dup2\n        /* \"#utility.yul\":11800:11805   */\n      dup2\n        /* \"#utility.yul\":11797:11811   */\n      lt\n        /* \"#utility.yul\":11790:11910   */\n      iszero\n      tag_242\n      jumpi\n        /* \"#utility.yul\":11861:11900   */\n      tag_243\n        /* \"#utility.yul\":11898:11899   */\n      0x00\n        /* \"#utility.yul\":11891:11896   */\n      dup3\n        /* \"#utility.yul\":11861:11900   */\n      tag_113\n      jump\t// in\n    tag_243:\n        /* \"#utility.yul\":11834:11835   */\n      0x01\n        /* \"#utility.yul\":11827:11832   */\n      dup2\n        /* \"#utility.yul\":11823:11836   */\n      add\n        /* \"#utility.yul\":11814:11836   */\n      swap1\n      pop\n        /* \"#utility.yul\":11790:11910   */\n      jump(tag_240)\n    tag_242:\n        /* \"#utility.yul\":11730:11916   */\n      pop\n      pop\n      jump\t// out\n        /* \"#utility.yul\":11922:12465   */\n    tag_115:\n        /* \"#utility.yul\":12023:12025   */\n      0x1f\n        /* \"#utility.yul\":12018:12021   */\n      dup3\n        /* \"#utility.yul\":12015:12026   */\n      gt\n        /* \"#utility.yul\":12012:12458   */\n      iszero\n      tag_245\n      jumpi\n        /* \"#utility.yul\":12057:12095   */\n      tag_246\n        /* \"#utility.yul\":12089:12094   */\n      dup2\n        /* \"#utility.yul\":12057:12095   */\n      tag_104\n      jump\t// in\n    tag_246:\n        /* \"#utility.yul\":12141:12170   */\n      tag_247\n        /* \"#utility.yul\":12159:12169   */\n      dup5\n        /* \"#utility.yul\":12141:12170   */\n      tag_105\n      jump\t// in\n    tag_247:\n        /* \"#utility.yul\":12131:12139   */\n      dup2\n        /* \"#utility.yul\":12127:12171   */\n      add\n        /* \"#utility.yul\":12324:12326   */\n      0x20\n        /* \"#utility.yul\":12312:12322   */\n      dup6\n        /* \"#utility.yul\":12309:12327   */\n      lt\n        /* \"#utility.yul\":12306:12355   */\n      iszero\n      tag_248\n      jumpi\n        /* \"#utility.yul\":12345:12353   */\n      dup2\n        /* \"#utility.yul\":12330:12353   */\n      swap1\n      pop\n        /* \"#utility.yul\":12306:12355   */\n    tag_248:\n        /* \"#utility.yul\":12368:12448   */\n      tag_249\n        /* \"#utility.yul\":12424:12446   */\n      tag_250\n        /* \"#utility.yul\":12442:12445   */\n      dup6\n        /* \"#utility.yul\":12424:12446   */\n      tag_105\n      jump\t// in\n    tag_250:\n        /* \"#utility.yul\":12414:12422   */\n      dup4\n        /* \"#utility.yul\":12410:12447   */\n      add\n        /* \"#utility.yul\":12397:12408   */\n      dup3\n        /* \"#utility.yul\":12368:12448   */\n      tag_114\n      jump\t// in\n    tag_249:\n        /* \"#utility.yul\":12027:12458   */\n      pop\n      pop\n        /* \"#utility.yul\":12012:12458   */\n    tag_245:\n        /* \"#utility.yul\":11922:12465   */\n      pop\n      pop\n      pop\n      jump\t// out\n        /* \"#utility.yul\":12471:12588   */\n    tag_116:\n        /* \"#utility.yul\":12525:12533   */\n      0x00\n        /* \"#utility.yul\":12575:12580   */\n      dup3\n        /* \"#utility.yul\":12569:12573   */\n      dup3\n        /* \"#utility.yul\":12565:12581   */\n      shr\n        /* \"#utility.yul\":12544:12581   */\n      swap1\n      pop\n        /* \"#utility.yul\":12471:12588   */\n      swap3\n      swap2\n      pop\n      pop\n      jump\t// out\n        /* \"#utility.yul\":12594:12763   */\n    tag_117:\n        /* \"#utility.yul\":12638:12644   */\n      0x00\n        /* \"#utility.yul\":12671:12722   */\n      tag_253\n        /* \"#utility.yul\":12719:12720   */\n      0x00\n        /* \"#utility.yul\":12715:12721   */\n      not\n        /* \"#utility.yul\":12707:12712   */\n      dup5\n        /* \"#utility.yul\":12704:12705   */\n      0x08\n        /* \"#utility.yul\":12700:12713   */\n      mul\n        /* \"#utility.yul\":12671:12722   */\n      tag_116\n      jump\t// in\n    tag_253:\n        /* \"#utility.yul\":12667:12723   */\n      not\n        /* \"#utility.yul\":12752:12756   */\n      dup1\n        /* \"#utility.yul\":12746:12750   */\n      dup4\n        /* \"#utility.yul\":12742:12757   */\n      and\n        /* \"#utility.yul\":12732:12757   */\n      swap2\n      pop\n        /* \"#utility.yul\":12645:12763   */\n      pop\n        /* \"#utility.yul\":12594:12763   */\n      swap3\n      swap2\n      pop\n      pop\n      jump\t// out\n        /* \"#utility.yul\":12768:13063   */\n    tag_118:\n        /* \"#utility.yul\":12844:12848   */\n      0x00\n        /* \"#utility.yul\":12990:13019   */\n      tag_255\n        /* \"#utility.yul\":13015:13018   */\n      dup4\n        /* \"#utility.yul\":13009:13013   */\n      dup4\n        /* \"#utility.yul\":12990:13019   */\n      tag_117\n      jump\t// in\n    tag_255:\n        /* \"#utility.yul\":12982:13019   */\n      swap2\n      pop\n        /* \"#utility.yul\":13052:13055   */\n      dup3\n        /* \"#utility.yul\":13049:13050   */\n      0x02\n        /* \"#utility.yul\":13045:13056   */\n      mul\n        /* \"#utility.yul\":13039:13043   */\n      dup3\n        /* \"#utility.yul\":13036:13057   */\n      or\n        /* \"#utility.yul\":13028:13057   */\n      swap1\n      pop\n        /* \"#utility.yul\":12768:13063   */\n      swap3\n      swap2\n      pop\n      pop\n      jump\t// out\n        /* \"#utility.yul\":13068:14463   */\n    tag_65:\n        /* \"#utility.yul\":13185:13222   */\n      tag_257\n        /* \"#utility.yul\":13218:13221   */\n      dup3\n        /* \"#utility.yul\":13185:13222   */\n      tag_83\n      jump\t// in\n    tag_257:\n        /* \"#utility.yul\":13287:13305   */\n      0xffffffffffffffff\n        /* \"#utility.yul\":13279:13285   */\n      dup2\n        /* \"#utility.yul\":13276:13306   */\n      gt\n        /* \"#utility.yul\":13273:13329   */\n      iszero\n      tag_258\n      jumpi\n        /* \"#utility.yul\":13309:13327   */\n      tag_259\n      tag_90\n      jump\t// in\n    tag_259:\n        /* \"#utility.yul\":13273:13329   */\n    tag_258:\n        /* \"#utility.yul\":13353:13391   */\n      tag_260\n        /* \"#utility.yul\":13385:13389   */\n      dup3\n        /* \"#utility.yul\":13379:13390   */\n      sload\n        /* \"#utility.yul\":13353:13391   */\n      tag_39\n      jump\t// in\n    tag_260:\n        /* \"#utility.yul\":13438:13505   */\n      tag_261\n        /* \"#utility.yul\":13498:13504   */\n      dup3\n        /* \"#utility.yul\":13490:13496   */\n      dup3\n        /* \"#utility.yul\":13484:13488   */\n      dup6\n        /* \"#utility.yul\":13438:13505   */\n      tag_115\n      jump\t// in\n    tag_261:\n        /* \"#utility.yul\":13532:13533   */\n      0x00\n        /* \"#utility.yul\":13556:13560   */\n      0x20\n        /* \"#utility.yul\":13543:13560   */\n      swap1\n      pop\n        /* \"#utility.yul\":13588:13590   */\n      0x1f\n        /* \"#utility.yul\":13580:13586   */\n      dup4\n        /* \"#utility.yul\":13577:13591   */\n      gt\n        /* \"#utility.yul\":13605:13606   */\n      0x01\n        /* \"#utility.yul\":13600:14218   */\n      dup2\n      eq\n      tag_263\n      jumpi\n        /* \"#utility.yul\":14262:14263   */\n      0x00\n        /* \"#utility.yul\":14279:14285   */\n      dup5\n        /* \"#utility.yul\":14276:14353   */\n      iszero\n      tag_264\n      jumpi\n        /* \"#utility.yul\":14328:14337   */\n      dup3\n        /* \"#utility.yul\":14323:14326   */\n      dup8\n        /* \"#utility.yul\":14319:14338   */\n      add\n        /* \"#utility.yul\":14313:14339   */\n      mload\n        /* \"#utility.yul\":14304:14339   */\n      swap1\n      pop\n        /* \"#utility.yul\":14276:14353   */\n    tag_264:\n        /* \"#utility.yul\":14379:14446   */\n      tag_265\n        /* \"#utility.yul\":14439:14445   */\n      dup6\n        /* \"#utility.yul\":14432:14437   */\n      dup3\n        /* \"#utility.yul\":14379:14446   */\n      tag_118\n      jump\t// in\n    tag_265:\n        /* \"#utility.yul\":14373:14377   */\n      dup7\n        /* \"#utility.yul\":14366:14447   */\n      sstore\n        /* \"#utility.yul\":14235:14457   */\n      pop\n        /* \"#utility.yul\":13570:14457   */\n      jump(tag_262)\n        /* \"#utility.yul\":13600:14218   */\n    tag_263:\n        /* \"#utility.yul\":13652:13656   */\n      0x1f\n        /* \"#utility.yul\":13648:13657   */\n      not\n        /* \"#utility.yul\":13640:13646   */\n      dup5\n        /* \"#utility.yul\":13636:13658   */\n      and\n        /* \"#utility.yul\":13686:13723   */\n      tag_266\n        /* \"#utility.yul\":13718:13722   */\n      dup7\n        /* \"#utility.yul\":13686:13723   */\n      tag_104\n      jump\t// in\n    tag_266:\n        /* \"#utility.yul\":13745:13746   */\n      0x00\n        /* \"#utility.yul\":13759:13967   */\n    tag_267:\n        /* \"#utility.yul\":13773:13780   */\n      dup3\n        /* \"#utility.yul\":13770:13771   */\n      dup2\n        /* \"#utility.yul\":13767:13781   */\n      lt\n        /* \"#utility.yul\":13759:13967   */\n      iszero\n      tag_269\n      jumpi\n        /* \"#utility.yul\":13852:13861   */\n      dup5\n        /* \"#utility.yul\":13847:13850   */\n      dup10\n        /* \"#utility.yul\":13843:13862   */\n      add\n        /* \"#utility.yul\":13837:13863   */\n      mload\n        /* \"#utility.yul\":13829:13835   */\n      dup3\n        /* \"#utility.yul\":13822:13864   */\n      sstore\n        /* \"#utility.yul\":13903:13904   */\n      0x01\n        /* \"#utility.yul\":13895:13901   */\n      dup3\n        /* \"#utility.yul\":13891:13905   */\n      add\n        /* \"#utility.yul\":13881:13905   */\n      swap2\n      pop\n        /* \"#utility.yul\":13950:13952   */\n      0x20\n        /* \"#utility.yul\":13939:13948   */\n      dup6\n        /* \"#utility.yul\":13935:13953   */\n      add\n        /* \"#utility.yul\":13922:13953   */\n      swap5\n      pop\n        /* \"#utility.yul\":13796:13800   */\n      0x20\n        /* \"#utility.yul\":13793:13794   */\n      dup2\n        /* \"#utility.yul\":13789:13801   */\n      add\n        /* \"#utility.yul\":13784:13801   */\n      swap1\n      pop\n        /* \"#utility.yul\":13759:13967   */\n      jump(tag_267)\n    tag_269:\n        /* \"#utility.yul\":13995:14001   */\n      dup7\n        /* \"#utility.yul\":13986:13993   */\n      dup4\n        /* \"#utility.yul\":13983:14002   */\n      lt\n        /* \"#utility.yul\":13980:14159   */\n      iszero\n      tag_270\n      jumpi\n        /* \"#utility.yul\":14053:14062   */\n      dup5\n        /* \"#utility.yul\":14048:14051   */\n      dup10\n        /* \"#utility.yul\":14044:14063   */\n      add\n        /* \"#utility.yul\":14038:14064   */\n      mload\n        /* \"#utility.yul\":14096:14144   */\n      tag_271\n        /* \"#utility.yul\":14138:14142   */\n      0x1f\n        /* \"#utility.yul\":14130:14136   */\n      dup10\n        /* \"#utility.yul\":14126:14143   */\n      and\n        /* \"#utility.yul\":14115:14124   */\n      dup3\n        /* \"#utility.yul\":14096:14144   */\n      tag_117\n      jump\t// in\n    tag_271:\n        /* \"#utility.yul\":14088:14094   */\n      dup4\n        /* \"#utility.yul\":14081:14145   */\n      sstore\n        /* \"#utility.yul\":14003:14159   */\n      pop\n        /* \"#utility.yul\":13980:14159   */\n    tag_270:\n        /* \"#utility.yul\":14205:14206   */\n      0x01\n        /* \"#utility.yul\":14201:14202   */\n      0x02\n        /* \"#utility.yul\":14193:14199   */\n      dup9\n        /* \"#utility.yul\":14189:14203   */\n      mul\n        /* \"#utility.yul\":14185:14207   */\n      add\n        /* \"#utility.yul\":14179:14183   */\n      dup9\n        /* \"#utility.yul\":14172:14208   */\n      sstore\n        /* \"#utility.yul\":13607:14218   */\n      pop\n      pop\n      pop\n        /* \"#utility.yul\":13570:14457   */\n    tag_262:\n      pop\n        /* \"#utility.yul\":13160:14463   */\n      pop\n      pop\n      pop\n        /* \"#utility.yul\":13068:14463   */\n      pop\n      pop\n      jump\t// out\n\n    auxdata: 0xa26469706673582212209d5370f9336e7c2083b7f62f350eeb8112e54580739f8170f552d4567ebc4d6864736f6c63430008120033\n}\n",
				"bytecode": {
					"linkReferences": {},
					"object": "608060405234801561001057600080fd5b50336000806101000a81548173ffffffffffffffffffffffffffffffffffffffff021916908373ffffffffffffffffffffffffffffffffffffffff160217905550610e3f806100606000396000f3fe608060405234801561001057600080fd5b50600436106100625760003560e01c80633c4f81cd14610067578063748bd104146100855780637609987d146100b757806377ec464f146100d3578063a1ca71b614610105578063a35fe0b614610121575b600080fd5b61006f61013d565b60405161007c9190610694565b60405180910390f35b61009f600480360381019061009a91906106f9565b610161565b6040516100ae939291906107c5565b60405180910390f35b6100d160048036038101906100cc9190610803565b61029c565b005b6100ed60048036038101906100e891906106f9565b610313565b6040516100fc939291906107c5565b60405180910390f35b61011f600480360381019061011a91906106f9565b6103c5565b005b61013b60048036038101906101369190610978565b6104af565b005b60008054906101000a900473ffffffffffffffffffffffffffffffffffffffff1681565b600060606000806001600086815260200190815260200160002060000154036101bf576040517f08c379a00000000000000000000000000000000000000000000000000000000081526004016101b690610a33565b60405180910390fd5b600160008581526020019081526020016000206000015460016000868152602001908152602001600020600101600160008781526020019081526020016000206002015481805461020f90610a82565b80601f016020809104026020016040519081016040528092919081815260200182805461023b90610a82565b80156102885780601f1061025d57610100808354040283529160200191610288565b820191906000526020600020905b81548152906001019060200180831161026b57829003601f168201915b505050505091509250925092509193909250565b60008054906101000a900473ffffffffffffffffffffffffffffffffffffffff1673ffffffffffffffffffffffffffffffffffffffff163373ffffffffffffffffffffffffffffffffffffffff16146102f457600080fd5b8060016000848152602001908152602001600020600201819055505050565b600160205280600052604060002060009150905080600001549080600101805461033c90610a82565b80601f016020809104026020016040519081016040528092919081815260200182805461036890610a82565b80156103b55780601f1061038a576101008083540402835291602001916103b5565b820191906000526020600020905b81548152906001019060200180831161039857829003601f168201915b5050505050908060020154905083565b60008054906101000a900473ffffffffffffffffffffffffffffffffffffffff1673ffffffffffffffffffffffffffffffffffffffff163373ffffffffffffffffffffffffffffffffffffffff161461041d57600080fd5b6000600160008381526020019081526020016000206000015403610476576040517f08c379a000000000000000000000000000000000000000000000000000000000815260040161046d90610a33565b60405180910390fd5b600160008281526020019081526020016000206000808201600090556001820160006104a291906105f6565b6002820160009055505050565b60008054906101000a900473ffffffffffffffffffffffffffffffffffffffff1673ffffffffffffffffffffffffffffffffffffffff163373ffffffffffffffffffffffffffffffffffffffff161461053d576040517f08c379a000000000000000000000000000000000000000000000000000000000815260040161053490610aff565b60405180910390fd5b6000600160008581526020019081526020016000206000015414610596576040517f08c379a000000000000000000000000000000000000000000000000000000000815260040161058d90610b6b565b60405180910390fd5b604051806060016040528084815260200183815260200182815250600160008581526020019081526020016000206000820151816000015560208201518160010190816105e39190610d37565b5060408201518160020155905050505050565b50805461060290610a82565b6000825580601f106106145750610633565b601f0160209004906000526020600020908101906106329190610636565b5b50565b5b8082111561064f576000816000905550600101610637565b5090565b600073ffffffffffffffffffffffffffffffffffffffff82169050919050565b600061067e82610653565b9050919050565b61068e81610673565b82525050565b60006020820190506106a96000830184610685565b92915050565b6000604051905090565b600080fd5b600080fd5b6000819050919050565b6106d6816106c3565b81146106e157600080fd5b50565b6000813590506106f3816106cd565b92915050565b60006020828403121561070f5761070e6106b9565b5b600061071d848285016106e4565b91505092915050565b61072f816106c3565b82525050565b600081519050919050565b600082825260208201905092915050565b60005b8381101561076f578082015181840152602081019050610754565b60008484015250505050565b6000601f19601f8301169050919050565b600061079782610735565b6107a18185610740565b93506107b1818560208601610751565b6107ba8161077b565b840191505092915050565b60006060820190506107da6000830186610726565b81810360208301526107ec818561078c565b90506107fb6040830184610726565b949350505050565b6000806040838503121561081a576108196106b9565b5b6000610828858286016106e4565b9250506020610839858286016106e4565b9150509250929050565b600080fd5b600080fd5b7f4e487b7100000000000000000000000000000000000000000000000000000000600052604160045260246000fd5b6108858261077b565b810181811067ffffffffffffffff821117156108a4576108a361084d565b5b80604052505050565b60006108b76106af565b90506108c3828261087c565b919050565b600067ffffffffffffffff8211156108e3576108e261084d565b5b6108ec8261077b565b9050602081019050919050565b82818337600083830152505050565b600061091b610916846108c8565b6108ad565b90508281526020810184848401111561093757610936610848565b5b6109428482856108f9565b509392505050565b600082601f83011261095f5761095e610843565b5b813561096f848260208601610908565b91505092915050565b600080600060608486031215610991576109906106b9565b5b600061099f868287016106e4565b935050602084013567ffffffffffffffff8111156109c0576109bf6106be565b5b6109cc8682870161094a565b92505060406109dd868287016106e4565b9150509250925092565b7f456c20656d706c6561646f206e6f206578697374650000000000000000000000600082015250565b6000610a1d601583610740565b9150610a28826109e7565b602082019050919050565b60006020820190508181036000830152610a4c81610a10565b9050919050565b7f4e487b7100000000000000000000000000000000000000000000000000000000600052602260045260246000fd5b60006002820490506001821680610a9a57607f821691505b602082108103610aad57610aac610a53565b5b50919050565b7f4e6f206572657320656c2070726f706965746172696f00000000000000000000600082015250565b6000610ae9601683610740565b9150610af482610ab3565b602082019050919050565b60006020820190508181036000830152610b1881610adc565b9050919050565b7f456c20656d706c6561646f207961206578697374650000000000000000000000600082015250565b6000610b55601583610740565b9150610b6082610b1f565b602082019050919050565b60006020820190508181036000830152610b8481610b48565b9050919050565b60008190508160005260206000209050919050565b60006020601f8301049050919050565b600082821b905092915050565b600060088302610bed7fffffffffffffffffffffffffffffffffffffffffffffffffffffffffffffffff82610bb0565b610bf78683610bb0565b95508019841693508086168417925050509392505050565b6000819050919050565b6000610c34610c2f610c2a846106c3565b610c0f565b6106c3565b9050919050565b6000819050919050565b610c4e83610c19565b610c62610c5a82610c3b565b848454610bbd565b825550505050565b600090565b610c77610c6a565b610c82818484610c45565b505050565b5b81811015610ca657610c9b600082610c6f565b600181019050610c88565b5050565b601f821115610ceb57610cbc81610b8b565b610cc584610ba0565b81016020851015610cd4578190505b610ce8610ce085610ba0565b830182610c87565b50505b505050565b600082821c905092915050565b6000610d0e60001984600802610cf0565b1980831691505092915050565b6000610d278383610cfd565b9150826002028217905092915050565b610d4082610735565b67ffffffffffffffff811115610d5957610d5861084d565b5b610d638254610a82565b610d6e828285610caa565b600060209050601f831160018114610da15760008415610d8f578287015190505b610d998582610d1b565b865550610e01565b601f198416610daf86610b8b565b60005b82811015610dd757848901518255600182019150602085019450602081019050610db2565b86831015610df45784890151610df0601f891682610cfd565b8355505b6001600288020188555050505b50505050505056fea26469706673582212209d5370f9336e7c2083b7f62f350eeb8112e54580739f8170f552d4567ebc4d6864736f6c63430008120033",
					"opcodes": "PUSH1 0x80 PUSH1 0x40 MSTORE CALLVALUE DUP1 ISZERO PUSH2 0x10 JUMPI PUSH1 0x0 DUP1 REVERT JUMPDEST POP CALLER PUSH1 0x0 DUP1 PUSH2 0x100 EXP DUP2 SLOAD DUP2 PUSH20 0xFFFFFFFFFFFFFFFFFFFFFFFFFFFFFFFFFFFFFFFF MUL NOT AND SWAP1 DUP4 PUSH20 0xFFFFFFFFFFFFFFFFFFFFFFFFFFFFFFFFFFFFFFFF AND MUL OR SWAP1 SSTORE POP PUSH2 0xE3F DUP1 PUSH2 0x60 PUSH1 0x0 CODECOPY PUSH1 0x0 RETURN INVALID PUSH1 0x80 PUSH1 0x40 MSTORE CALLVALUE DUP1 ISZERO PUSH2 0x10 JUMPI PUSH1 0x0 DUP1 REVERT JUMPDEST POP PUSH1 0x4 CALLDATASIZE LT PUSH2 0x62 JUMPI PUSH1 0x0 CALLDATALOAD PUSH1 0xE0 SHR DUP1 PUSH4 0x3C4F81CD EQ PUSH2 0x67 JUMPI DUP1 PUSH4 0x748BD104 EQ PUSH2 0x85 JUMPI DUP1 PUSH4 0x7609987D EQ PUSH2 0xB7 JUMPI DUP1 PUSH4 0x77EC464F EQ PUSH2 0xD3 JUMPI DUP1 PUSH4 0xA1CA71B6 EQ PUSH2 0x105 JUMPI DUP1 PUSH4 0xA35FE0B6 EQ PUSH2 0x121 JUMPI JUMPDEST PUSH1 0x0 DUP1 REVERT JUMPDEST PUSH2 0x6F PUSH2 0x13D JUMP JUMPDEST PUSH1 0x40 MLOAD PUSH2 0x7C SWAP2 SWAP1 PUSH2 0x694 JUMP JUMPDEST PUSH1 0x40 MLOAD DUP1 SWAP2 SUB SWAP1 RETURN JUMPDEST PUSH2 0x9F PUSH1 0x4 DUP1 CALLDATASIZE SUB DUP2 ADD SWAP1 PUSH2 0x9A SWAP2 SWAP1 PUSH2 0x6F9 JUMP JUMPDEST PUSH2 0x161 JUMP JUMPDEST PUSH1 0x40 MLOAD PUSH2 0xAE SWAP4 SWAP3 SWAP2 SWAP1 PUSH2 0x7C5 JUMP JUMPDEST PUSH1 0x40 MLOAD DUP1 SWAP2 SUB SWAP1 RETURN JUMPDEST PUSH2 0xD1 PUSH1 0x4 DUP1 CALLDATASIZE SUB DUP2 ADD SWAP1 PUSH2 0xCC SWAP2 SWAP1 PUSH2 0x803 JUMP JUMPDEST PUSH2 0x29C JUMP JUMPDEST STOP JUMPDEST PUSH2 0xED PUSH1 0x4 DUP1 CALLDATASIZE SUB DUP2 ADD SWAP1 PUSH2 0xE8 SWAP2 SWAP1 PUSH2 0x6F9 JUMP JUMPDEST PUSH2 0x313 JUMP JUMPDEST PUSH1 0x40 MLOAD PUSH2 0xFC SWAP4 SWAP3 SWAP2 SWAP1 PUSH2 0x7C5 JUMP JUMPDEST PUSH1 0x40 MLOAD DUP1 SWAP2 SUB SWAP1 RETURN JUMPDEST PUSH2 0x11F PUSH1 0x4 DUP1 CALLDATASIZE SUB DUP2 ADD SWAP1 PUSH2 0x11A SWAP2 SWAP1 PUSH2 0x6F9 JUMP JUMPDEST PUSH2 0x3C5 JUMP JUMPDEST STOP JUMPDEST PUSH2 0x13B PUSH1 0x4 DUP1 CALLDATASIZE SUB DUP2 ADD SWAP1 PUSH2 0x136 SWAP2 SWAP1 PUSH2 0x978 JUMP JUMPDEST PUSH2 0x4AF JUMP JUMPDEST STOP JUMPDEST PUSH1 0x0 DUP1 SLOAD SWAP1 PUSH2 0x100 EXP SWAP1 DIV PUSH20 0xFFFFFFFFFFFFFFFFFFFFFFFFFFFFFFFFFFFFFFFF AND DUP2 JUMP JUMPDEST PUSH1 0x0 PUSH1 0x60 PUSH1 0x0 DUP1 PUSH1 0x1 PUSH1 0x0 DUP7 DUP2 MSTORE PUSH1 0x20 ADD SWAP1 DUP2 MSTORE PUSH1 0x20 ADD PUSH1 0x0 KECCAK256 PUSH1 0x0 ADD SLOAD SUB PUSH2 0x1BF JUMPI PUSH1 0x40 MLOAD PUSH32 0x8C379A000000000000000000000000000000000000000000000000000000000 DUP2 MSTORE PUSH1 0x4 ADD PUSH2 0x1B6 SWAP1 PUSH2 0xA33 JUMP JUMPDEST PUSH1 0x40 MLOAD DUP1 SWAP2 SUB SWAP1 REVERT JUMPDEST PUSH1 0x1 PUSH1 0x0 DUP6 DUP2 MSTORE PUSH1 0x20 ADD SWAP1 DUP2 MSTORE PUSH1 0x20 ADD PUSH1 0x0 KECCAK256 PUSH1 0x0 ADD SLOAD PUSH1 0x1 PUSH1 0x0 DUP7 DUP2 MSTORE PUSH1 0x20 ADD SWAP1 DUP2 MSTORE PUSH1 0x20 ADD PUSH1 0x0 KECCAK256 PUSH1 0x1 ADD PUSH1 0x1 PUSH1 0x0 DUP8 DUP2 MSTORE PUSH1 0x20 ADD SWAP1 DUP2 MSTORE PUSH1 0x20 ADD PUSH1 0x0 KECCAK256 PUSH1 0x2 ADD SLOAD DUP2 DUP1 SLOAD PUSH2 0x20F SWAP1 PUSH2 0xA82 JUMP JUMPDEST DUP1 PUSH1 0x1F ADD PUSH1 0x20 DUP1 SWAP2 DIV MUL PUSH1 0x20 ADD PUSH1 0x40 MLOAD SWAP1 DUP2 ADD PUSH1 0x40 MSTORE DUP1 SWAP3 SWAP2 SWAP1 DUP2 DUP2 MSTORE PUSH1 0x20 ADD DUP3 DUP1 SLOAD PUSH2 0x23B SWAP1 PUSH2 0xA82 JUMP JUMPDEST DUP1 ISZERO PUSH2 0x288 JUMPI DUP1 PUSH1 0x1F LT PUSH2 0x25D JUMPI PUSH2 0x100 DUP1 DUP4 SLOAD DIV MUL DUP4 MSTORE SWAP2 PUSH1 0x20 ADD SWAP2 PUSH2 0x288 JUMP JUMPDEST DUP3 ADD SWAP2 SWAP1 PUSH1 0x0 MSTORE PUSH1 0x20 PUSH1 0x0 KECCAK256 SWAP1 JUMPDEST DUP2 SLOAD DUP2 MSTORE SWAP1 PUSH1 0x1 ADD SWAP1 PUSH1 0x20 ADD DUP1 DUP4 GT PUSH2 0x26B JUMPI DUP3 SWAP1 SUB PUSH1 0x1F AND DUP3 ADD SWAP2 JUMPDEST POP POP POP POP POP SWAP2 POP SWAP3 POP SWAP3 POP SWAP3 POP SWAP2 SWAP4 SWAP1 SWAP3 POP JUMP JUMPDEST PUSH1 0x0 DUP1 SLOAD SWAP1 PUSH2 0x100 EXP SWAP1 DIV PUSH20 0xFFFFFFFFFFFFFFFFFFFFFFFFFFFFFFFFFFFFFFFF AND PUSH20 0xFFFFFFFFFFFFFFFFFFFFFFFFFFFFFFFFFFFFFFFF AND CALLER PUSH20 0xFFFFFFFFFFFFFFFFFFFFFFFFFFFFFFFFFFFFFFFF AND EQ PUSH2 0x2F4 JUMPI PUSH1 0x0 DUP1 REVERT JUMPDEST DUP1 PUSH1 0x1 PUSH1 0x0 DUP5 DUP2 MSTORE PUSH1 0x20 ADD SWAP1 DUP2 MSTORE PUSH1 0x20 ADD PUSH1 0x0 KECCAK256 PUSH1 0x2 ADD DUP2 SWAP1 SSTORE POP POP POP JUMP JUMPDEST PUSH1 0x1 PUSH1 0x20 MSTORE DUP1 PUSH1 0x0 MSTORE PUSH1 0x40 PUSH1 0x0 KECCAK256 PUSH1 0x0 SWAP2 POP SWAP1 POP DUP1 PUSH1 0x0 ADD SLOAD SWAP1 DUP1 PUSH1 0x1 ADD DUP1 SLOAD PUSH2 0x33C SWAP1 PUSH2 0xA82 JUMP JUMPDEST DUP1 PUSH1 0x1F ADD PUSH1 0x20 DUP1 SWAP2 DIV MUL PUSH1 0x20 ADD PUSH1 0x40 MLOAD SWAP1 DUP2 ADD PUSH1 0x40 MSTORE DUP1 SWAP3 SWAP2 SWAP1 DUP2 DUP2 MSTORE PUSH1 0x20 ADD DUP3 DUP1 SLOAD PUSH2 0x368 SWAP1 PUSH2 0xA82 JUMP JUMPDEST DUP1 ISZERO PUSH2 0x3B5 JUMPI DUP1 PUSH1 0x1F LT PUSH2 0x38A JUMPI PUSH2 0x100 DUP1 DUP4 SLOAD DIV MUL DUP4 MSTORE SWAP2 PUSH1 0x20 ADD SWAP2 PUSH2 0x3B5 JUMP JUMPDEST DUP3 ADD SWAP2 SWAP1 PUSH1 0x0 MSTORE PUSH1 0x20 PUSH1 0x0 KECCAK256 SWAP1 JUMPDEST DUP2 SLOAD DUP2 MSTORE SWAP1 PUSH1 0x1 ADD SWAP1 PUSH1 0x20 ADD DUP1 DUP4 GT PUSH2 0x398 JUMPI DUP3 SWAP1 SUB PUSH1 0x1F AND DUP3 ADD SWAP2 JUMPDEST POP POP POP POP POP SWAP1 DUP1 PUSH1 0x2 ADD SLOAD SWAP1 POP DUP4 JUMP JUMPDEST PUSH1 0x0 DUP1 SLOAD SWAP1 PUSH2 0x100 EXP SWAP1 DIV PUSH20 0xFFFFFFFFFFFFFFFFFFFFFFFFFFFFFFFFFFFFFFFF AND PUSH20 0xFFFFFFFFFFFFFFFFFFFFFFFFFFFFFFFFFFFFFFFF AND CALLER PUSH20 0xFFFFFFFFFFFFFFFFFFFFFFFFFFFFFFFFFFFFFFFF AND EQ PUSH2 0x41D JUMPI PUSH1 0x0 DUP1 REVERT JUMPDEST PUSH1 0x0 PUSH1 0x1 PUSH1 0x0 DUP4 DUP2 MSTORE PUSH1 0x20 ADD SWAP1 DUP2 MSTORE PUSH1 0x20 ADD PUSH1 0x0 KECCAK256 PUSH1 0x0 ADD SLOAD SUB PUSH2 0x476 JUMPI PUSH1 0x40 MLOAD PUSH32 0x8C379A000000000000000000000000000000000000000000000000000000000 DUP2 MSTORE PUSH1 0x4 ADD PUSH2 0x46D SWAP1 PUSH2 0xA33 JUMP JUMPDEST PUSH1 0x40 MLOAD DUP1 SWAP2 SUB SWAP1 REVERT JUMPDEST PUSH1 0x1 PUSH1 0x0 DUP3 DUP2 MSTORE PUSH1 0x20 ADD SWAP1 DUP2 MSTORE PUSH1 0x20 ADD PUSH1 0x0 KECCAK256 PUSH1 0x0 DUP1 DUP3 ADD PUSH1 0x0 SWAP1 SSTORE PUSH1 0x1 DUP3 ADD PUSH1 0x0 PUSH2 0x4A2 SWAP2 SWAP1 PUSH2 0x5F6 JUMP JUMPDEST PUSH1 0x2 DUP3 ADD PUSH1 0x0 SWAP1 SSTORE POP POP POP JUMP JUMPDEST PUSH1 0x0 DUP1 SLOAD SWAP1 PUSH2 0x100 EXP SWAP1 DIV PUSH20 0xFFFFFFFFFFFFFFFFFFFFFFFFFFFFFFFFFFFFFFFF AND PUSH20 0xFFFFFFFFFFFFFFFFFFFFFFFFFFFFFFFFFFFFFFFF AND CALLER PUSH20 0xFFFFFFFFFFFFFFFFFFFFFFFFFFFFFFFFFFFFFFFF AND EQ PUSH2 0x53D JUMPI PUSH1 0x40 MLOAD PUSH32 0x8C379A000000000000000000000000000000000000000000000000000000000 DUP2 MSTORE PUSH1 0x4 ADD PUSH2 0x534 SWAP1 PUSH2 0xAFF JUMP JUMPDEST PUSH1 0x40 MLOAD DUP1 SWAP2 SUB SWAP1 REVERT JUMPDEST PUSH1 0x0 PUSH1 0x1 PUSH1 0x0 DUP6 DUP2 MSTORE PUSH1 0x20 ADD SWAP1 DUP2 MSTORE PUSH1 0x20 ADD PUSH1 0x0 KECCAK256 PUSH1 0x0 ADD SLOAD EQ PUSH2 0x596 JUMPI PUSH1 0x40 MLOAD PUSH32 0x8C379A000000000000000000000000000000000000000000000000000000000 DUP2 MSTORE PUSH1 0x4 ADD PUSH2 0x58D SWAP1 PUSH2 0xB6B JUMP JUMPDEST PUSH1 0x40 MLOAD DUP1 SWAP2 SUB SWAP1 REVERT JUMPDEST PUSH1 0x40 MLOAD DUP1 PUSH1 0x60 ADD PUSH1 0x40 MSTORE DUP1 DUP5 DUP2 MSTORE PUSH1 0x20 ADD DUP4 DUP2 MSTORE PUSH1 0x20 ADD DUP3 DUP2 MSTORE POP PUSH1 0x1 PUSH1 0x0 DUP6 DUP2 MSTORE PUSH1 0x20 ADD SWAP1 DUP2 MSTORE PUSH1 0x20 ADD PUSH1 0x0 KECCAK256 PUSH1 0x0 DUP3 ADD MLOAD DUP2 PUSH1 0x0 ADD SSTORE PUSH1 0x20 DUP3 ADD MLOAD DUP2 PUSH1 0x1 ADD SWAP1 DUP2 PUSH2 0x5E3 SWAP2 SWAP1 PUSH2 0xD37 JUMP JUMPDEST POP PUSH1 0x40 DUP3 ADD MLOAD DUP2 PUSH1 0x2 ADD SSTORE SWAP1 POP POP POP POP POP JUMP JUMPDEST POP DUP1 SLOAD PUSH2 0x602 SWAP1 PUSH2 0xA82 JUMP JUMPDEST PUSH1 0x0 DUP3 SSTORE DUP1 PUSH1 0x1F LT PUSH2 0x614 JUMPI POP PUSH2 0x633 JUMP JUMPDEST PUSH1 0x1F ADD PUSH1 0x20 SWAP1 DIV SWAP1 PUSH1 0x0 MSTORE PUSH1 0x20 PUSH1 0x0 KECCAK256 SWAP1 DUP2 ADD SWAP1 PUSH2 0x632 SWAP2 SWAP1 PUSH2 0x636 JUMP JUMPDEST JUMPDEST POP JUMP JUMPDEST JUMPDEST DUP1 DUP3 GT ISZERO PUSH2 0x64F JUMPI PUSH1 0x0 DUP2 PUSH1 0x0 SWAP1 SSTORE POP PUSH1 0x1 ADD PUSH2 0x637 JUMP JUMPDEST POP SWAP1 JUMP JUMPDEST PUSH1 0x0 PUSH20 0xFFFFFFFFFFFFFFFFFFFFFFFFFFFFFFFFFFFFFFFF DUP3 AND SWAP1 POP SWAP2 SWAP1 POP JUMP JUMPDEST PUSH1 0x0 PUSH2 0x67E DUP3 PUSH2 0x653 JUMP JUMPDEST SWAP1 POP SWAP2 SWAP1 POP JUMP JUMPDEST PUSH2 0x68E DUP2 PUSH2 0x673 JUMP JUMPDEST DUP3 MSTORE POP POP JUMP JUMPDEST PUSH1 0x0 PUSH1 0x20 DUP3 ADD SWAP1 POP PUSH2 0x6A9 PUSH1 0x0 DUP4 ADD DUP5 PUSH2 0x685 JUMP JUMPDEST SWAP3 SWAP2 POP POP JUMP JUMPDEST PUSH1 0x0 PUSH1 0x40 MLOAD SWAP1 POP SWAP1 JUMP JUMPDEST PUSH1 0x0 DUP1 REVERT JUMPDEST PUSH1 0x0 DUP1 REVERT JUMPDEST PUSH1 0x0 DUP2 SWAP1 POP SWAP2 SWAP1 POP JUMP JUMPDEST PUSH2 0x6D6 DUP2 PUSH2 0x6C3 JUMP JUMPDEST DUP2 EQ PUSH2 0x6E1 JUMPI PUSH1 0x0 DUP1 REVERT JUMPDEST POP JUMP JUMPDEST PUSH1 0x0 DUP2 CALLDATALOAD SWAP1 POP PUSH2 0x6F3 DUP2 PUSH2 0x6CD JUMP JUMPDEST SWAP3 SWAP2 POP POP JUMP JUMPDEST PUSH1 0x0 PUSH1 0x20 DUP3 DUP5 SUB SLT ISZERO PUSH2 0x70F JUMPI PUSH2 0x70E PUSH2 0x6B9 JUMP JUMPDEST JUMPDEST PUSH1 0x0 PUSH2 0x71D DUP5 DUP3 DUP6 ADD PUSH2 0x6E4 JUMP JUMPDEST SWAP2 POP POP SWAP3 SWAP2 POP POP JUMP JUMPDEST PUSH2 0x72F DUP2 PUSH2 0x6C3 JUMP JUMPDEST DUP3 MSTORE POP POP JUMP JUMPDEST PUSH1 0x0 DUP2 MLOAD SWAP1 POP SWAP2 SWAP1 POP JUMP JUMPDEST PUSH1 0x0 DUP3 DUP3 MSTORE PUSH1 0x20 DUP3 ADD SWAP1 POP SWAP3 SWAP2 POP POP JUMP JUMPDEST PUSH1 0x0 JUMPDEST DUP4 DUP2 LT ISZERO PUSH2 0x76F JUMPI DUP1 DUP3 ADD MLOAD DUP2 DUP5 ADD MSTORE PUSH1 0x20 DUP2 ADD SWAP1 POP PUSH2 0x754 JUMP JUMPDEST PUSH1 0x0 DUP5 DUP5 ADD MSTORE POP POP POP POP JUMP JUMPDEST PUSH1 0x0 PUSH1 0x1F NOT PUSH1 0x1F DUP4 ADD AND SWAP1 POP SWAP2 SWAP1 POP JUMP JUMPDEST PUSH1 0x0 PUSH2 0x797 DUP3 PUSH2 0x735 JUMP JUMPDEST PUSH2 0x7A1 DUP2 DUP6 PUSH2 0x740 JUMP JUMPDEST SWAP4 POP PUSH2 0x7B1 DUP2 DUP6 PUSH1 0x20 DUP7 ADD PUSH2 0x751 JUMP JUMPDEST PUSH2 0x7BA DUP2 PUSH2 0x77B JUMP JUMPDEST DUP5 ADD SWAP2 POP POP SWAP3 SWAP2 POP POP JUMP JUMPDEST PUSH1 0x0 PUSH1 0x60 DUP3 ADD SWAP1 POP PUSH2 0x7DA PUSH1 0x0 DUP4 ADD DUP7 PUSH2 0x726 JUMP JUMPDEST DUP2 DUP2 SUB PUSH1 0x20 DUP4 ADD MSTORE PUSH2 0x7EC DUP2 DUP6 PUSH2 0x78C JUMP JUMPDEST SWAP1 POP PUSH2 0x7FB PUSH1 0x40 DUP4 ADD DUP5 PUSH2 0x726 JUMP JUMPDEST SWAP5 SWAP4 POP POP POP POP JUMP JUMPDEST PUSH1 0x0 DUP1 PUSH1 0x40 DUP4 DUP6 SUB SLT ISZERO PUSH2 0x81A JUMPI PUSH2 0x819 PUSH2 0x6B9 JUMP JUMPDEST JUMPDEST PUSH1 0x0 PUSH2 0x828 DUP6 DUP3 DUP7 ADD PUSH2 0x6E4 JUMP JUMPDEST SWAP3 POP POP PUSH1 0x20 PUSH2 0x839 DUP6 DUP3 DUP7 ADD PUSH2 0x6E4 JUMP JUMPDEST SWAP2 POP POP SWAP3 POP SWAP3 SWAP1 POP JUMP JUMPDEST PUSH1 0x0 DUP1 REVERT JUMPDEST PUSH1 0x0 DUP1 REVERT JUMPDEST PUSH32 0x4E487B7100000000000000000000000000000000000000000000000000000000 PUSH1 0x0 MSTORE PUSH1 0x41 PUSH1 0x4 MSTORE PUSH1 0x24 PUSH1 0x0 REVERT JUMPDEST PUSH2 0x885 DUP3 PUSH2 0x77B JUMP JUMPDEST DUP2 ADD DUP2 DUP2 LT PUSH8 0xFFFFFFFFFFFFFFFF DUP3 GT OR ISZERO PUSH2 0x8A4 JUMPI PUSH2 0x8A3 PUSH2 0x84D JUMP JUMPDEST JUMPDEST DUP1 PUSH1 0x40 MSTORE POP POP POP JUMP JUMPDEST PUSH1 0x0 PUSH2 0x8B7 PUSH2 0x6AF JUMP JUMPDEST SWAP1 POP PUSH2 0x8C3 DUP3 DUP3 PUSH2 0x87C JUMP JUMPDEST SWAP2 SWAP1 POP JUMP JUMPDEST PUSH1 0x0 PUSH8 0xFFFFFFFFFFFFFFFF DUP3 GT ISZERO PUSH2 0x8E3 JUMPI PUSH2 0x8E2 PUSH2 0x84D JUMP JUMPDEST JUMPDEST PUSH2 0x8EC DUP3 PUSH2 0x77B JUMP JUMPDEST SWAP1 POP PUSH1 0x20 DUP2 ADD SWAP1 POP SWAP2 SWAP1 POP JUMP JUMPDEST DUP3 DUP2 DUP4 CALLDATACOPY PUSH1 0x0 DUP4 DUP4 ADD MSTORE POP POP POP JUMP JUMPDEST PUSH1 0x0 PUSH2 0x91B PUSH2 0x916 DUP5 PUSH2 0x8C8 JUMP JUMPDEST PUSH2 0x8AD JUMP JUMPDEST SWAP1 POP DUP3 DUP2 MSTORE PUSH1 0x20 DUP2 ADD DUP5 DUP5 DUP5 ADD GT ISZERO PUSH2 0x937 JUMPI PUSH2 0x936 PUSH2 0x848 JUMP JUMPDEST JUMPDEST PUSH2 0x942 DUP5 DUP3 DUP6 PUSH2 0x8F9 JUMP JUMPDEST POP SWAP4 SWAP3 POP POP POP JUMP JUMPDEST PUSH1 0x0 DUP3 PUSH1 0x1F DUP4 ADD SLT PUSH2 0x95F JUMPI PUSH2 0x95E PUSH2 0x843 JUMP JUMPDEST JUMPDEST DUP2 CALLDATALOAD PUSH2 0x96F DUP5 DUP3 PUSH1 0x20 DUP7 ADD PUSH2 0x908 JUMP JUMPDEST SWAP2 POP POP SWAP3 SWAP2 POP POP JUMP JUMPDEST PUSH1 0x0 DUP1 PUSH1 0x0 PUSH1 0x60 DUP5 DUP7 SUB SLT ISZERO PUSH2 0x991 JUMPI PUSH2 0x990 PUSH2 0x6B9 JUMP JUMPDEST JUMPDEST PUSH1 0x0 PUSH2 0x99F DUP7 DUP3 DUP8 ADD PUSH2 0x6E4 JUMP JUMPDEST SWAP4 POP POP PUSH1 0x20 DUP5 ADD CALLDATALOAD PUSH8 0xFFFFFFFFFFFFFFFF DUP2 GT ISZERO PUSH2 0x9C0 JUMPI PUSH2 0x9BF PUSH2 0x6BE JUMP JUMPDEST JUMPDEST PUSH2 0x9CC DUP7 DUP3 DUP8 ADD PUSH2 0x94A JUMP JUMPDEST SWAP3 POP POP PUSH1 0x40 PUSH2 0x9DD DUP7 DUP3 DUP8 ADD PUSH2 0x6E4 JUMP JUMPDEST SWAP2 POP POP SWAP3 POP SWAP3 POP SWAP3 JUMP JUMPDEST PUSH32 0x456C20656D706C6561646F206E6F206578697374650000000000000000000000 PUSH1 0x0 DUP3 ADD MSTORE POP JUMP JUMPDEST PUSH1 0x0 PUSH2 0xA1D PUSH1 0x15 DUP4 PUSH2 0x740 JUMP JUMPDEST SWAP2 POP PUSH2 0xA28 DUP3 PUSH2 0x9E7 JUMP JUMPDEST PUSH1 0x20 DUP3 ADD SWAP1 POP SWAP2 SWAP1 POP JUMP JUMPDEST PUSH1 0x0 PUSH1 0x20 DUP3 ADD SWAP1 POP DUP2 DUP2 SUB PUSH1 0x0 DUP4 ADD MSTORE PUSH2 0xA4C DUP2 PUSH2 0xA10 JUMP JUMPDEST SWAP1 POP SWAP2 SWAP1 POP JUMP JUMPDEST PUSH32 0x4E487B7100000000000000000000000000000000000000000000000000000000 PUSH1 0x0 MSTORE PUSH1 0x22 PUSH1 0x4 MSTORE PUSH1 0x24 PUSH1 0x0 REVERT JUMPDEST PUSH1 0x0 PUSH1 0x2 DUP3 DIV SWAP1 POP PUSH1 0x1 DUP3 AND DUP1 PUSH2 0xA9A JUMPI PUSH1 0x7F DUP3 AND SWAP2 POP JUMPDEST PUSH1 0x20 DUP3 LT DUP2 SUB PUSH2 0xAAD JUMPI PUSH2 0xAAC PUSH2 0xA53 JUMP JUMPDEST JUMPDEST POP SWAP2 SWAP1 POP JUMP JUMPDEST PUSH32 0x4E6F206572657320656C2070726F706965746172696F00000000000000000000 PUSH1 0x0 DUP3 ADD MSTORE POP JUMP JUMPDEST PUSH1 0x0 PUSH2 0xAE9 PUSH1 0x16 DUP4 PUSH2 0x740 JUMP JUMPDEST SWAP2 POP PUSH2 0xAF4 DUP3 PUSH2 0xAB3 JUMP JUMPDEST PUSH1 0x20 DUP3 ADD SWAP1 POP SWAP2 SWAP1 POP JUMP JUMPDEST PUSH1 0x0 PUSH1 0x20 DUP3 ADD SWAP1 POP DUP2 DUP2 SUB PUSH1 0x0 DUP4 ADD MSTORE PUSH2 0xB18 DUP2 PUSH2 0xADC JUMP JUMPDEST SWAP1 POP SWAP2 SWAP1 POP JUMP JUMPDEST PUSH32 0x456C20656D706C6561646F207961206578697374650000000000000000000000 PUSH1 0x0 DUP3 ADD MSTORE POP JUMP JUMPDEST PUSH1 0x0 PUSH2 0xB55 PUSH1 0x15 DUP4 PUSH2 0x740 JUMP JUMPDEST SWAP2 POP PUSH2 0xB60 DUP3 PUSH2 0xB1F JUMP JUMPDEST PUSH1 0x20 DUP3 ADD SWAP1 POP SWAP2 SWAP1 POP JUMP JUMPDEST PUSH1 0x0 PUSH1 0x20 DUP3 ADD SWAP1 POP DUP2 DUP2 SUB PUSH1 0x0 DUP4 ADD MSTORE PUSH2 0xB84 DUP2 PUSH2 0xB48 JUMP JUMPDEST SWAP1 POP SWAP2 SWAP1 POP JUMP JUMPDEST PUSH1 0x0 DUP2 SWAP1 POP DUP2 PUSH1 0x0 MSTORE PUSH1 0x20 PUSH1 0x0 KECCAK256 SWAP1 POP SWAP2 SWAP1 POP JUMP JUMPDEST PUSH1 0x0 PUSH1 0x20 PUSH1 0x1F DUP4 ADD DIV SWAP1 POP SWAP2 SWAP1 POP JUMP JUMPDEST PUSH1 0x0 DUP3 DUP3 SHL SWAP1 POP SWAP3 SWAP2 POP POP JUMP JUMPDEST PUSH1 0x0 PUSH1 0x8 DUP4 MUL PUSH2 0xBED PUSH32 0xFFFFFFFFFFFFFFFFFFFFFFFFFFFFFFFFFFFFFFFFFFFFFFFFFFFFFFFFFFFFFFFF DUP3 PUSH2 0xBB0 JUMP JUMPDEST PUSH2 0xBF7 DUP7 DUP4 PUSH2 0xBB0 JUMP JUMPDEST SWAP6 POP DUP1 NOT DUP5 AND SWAP4 POP DUP1 DUP7 AND DUP5 OR SWAP3 POP POP POP SWAP4 SWAP3 POP POP POP JUMP JUMPDEST PUSH1 0x0 DUP2 SWAP1 POP SWAP2 SWAP1 POP JUMP JUMPDEST PUSH1 0x0 PUSH2 0xC34 PUSH2 0xC2F PUSH2 0xC2A DUP5 PUSH2 0x6C3 JUMP JUMPDEST PUSH2 0xC0F JUMP JUMPDEST PUSH2 0x6C3 JUMP JUMPDEST SWAP1 POP SWAP2 SWAP1 POP JUMP JUMPDEST PUSH1 0x0 DUP2 SWAP1 POP SWAP2 SWAP1 POP JUMP JUMPDEST PUSH2 0xC4E DUP4 PUSH2 0xC19 JUMP JUMPDEST PUSH2 0xC62 PUSH2 0xC5A DUP3 PUSH2 0xC3B JUMP JUMPDEST DUP5 DUP5 SLOAD PUSH2 0xBBD JUMP JUMPDEST DUP3 SSTORE POP POP POP POP JUMP JUMPDEST PUSH1 0x0 SWAP1 JUMP JUMPDEST PUSH2 0xC77 PUSH2 0xC6A JUMP JUMPDEST PUSH2 0xC82 DUP2 DUP5 DUP5 PUSH2 0xC45 JUMP JUMPDEST POP POP POP JUMP JUMPDEST JUMPDEST DUP2 DUP2 LT ISZERO PUSH2 0xCA6 JUMPI PUSH2 0xC9B PUSH1 0x0 DUP3 PUSH2 0xC6F JUMP JUMPDEST PUSH1 0x1 DUP2 ADD SWAP1 POP PUSH2 0xC88 JUMP JUMPDEST POP POP JUMP JUMPDEST PUSH1 0x1F DUP3 GT ISZERO PUSH2 0xCEB JUMPI PUSH2 0xCBC DUP2 PUSH2 0xB8B JUMP JUMPDEST PUSH2 0xCC5 DUP5 PUSH2 0xBA0 JUMP JUMPDEST DUP2 ADD PUSH1 0x20 DUP6 LT ISZERO PUSH2 0xCD4 JUMPI DUP2 SWAP1 POP JUMPDEST PUSH2 0xCE8 PUSH2 0xCE0 DUP6 PUSH2 0xBA0 JUMP JUMPDEST DUP4 ADD DUP3 PUSH2 0xC87 JUMP JUMPDEST POP POP JUMPDEST POP POP POP JUMP JUMPDEST PUSH1 0x0 DUP3 DUP3 SHR SWAP1 POP SWAP3 SWAP2 POP POP JUMP JUMPDEST PUSH1 0x0 PUSH2 0xD0E PUSH1 0x0 NOT DUP5 PUSH1 0x8 MUL PUSH2 0xCF0 JUMP JUMPDEST NOT DUP1 DUP4 AND SWAP2 POP POP SWAP3 SWAP2 POP POP JUMP JUMPDEST PUSH1 0x0 PUSH2 0xD27 DUP4 DUP4 PUSH2 0xCFD JUMP JUMPDEST SWAP2 POP DUP3 PUSH1 0x2 MUL DUP3 OR SWAP1 POP SWAP3 SWAP2 POP POP JUMP JUMPDEST PUSH2 0xD40 DUP3 PUSH2 0x735 JUMP JUMPDEST PUSH8 0xFFFFFFFFFFFFFFFF DUP2 GT ISZERO PUSH2 0xD59 JUMPI PUSH2 0xD58 PUSH2 0x84D JUMP JUMPDEST JUMPDEST PUSH2 0xD63 DUP3 SLOAD PUSH2 0xA82 JUMP JUMPDEST PUSH2 0xD6E DUP3 DUP3 DUP6 PUSH2 0xCAA JUMP JUMPDEST PUSH1 0x0 PUSH1 0x20 SWAP1 POP PUSH1 0x1F DUP4 GT PUSH1 0x1 DUP2 EQ PUSH2 0xDA1 JUMPI PUSH1 0x0 DUP5 ISZERO PUSH2 0xD8F JUMPI DUP3 DUP8 ADD MLOAD SWAP1 POP JUMPDEST PUSH2 0xD99 DUP6 DUP3 PUSH2 0xD1B JUMP JUMPDEST DUP7 SSTORE POP PUSH2 0xE01 JUMP JUMPDEST PUSH1 0x1F NOT DUP5 AND PUSH2 0xDAF DUP7 PUSH2 0xB8B JUMP JUMPDEST PUSH1 0x0 JUMPDEST DUP3 DUP2 LT ISZERO PUSH2 0xDD7 JUMPI DUP5 DUP10 ADD MLOAD DUP3 SSTORE PUSH1 0x1 DUP3 ADD SWAP2 POP PUSH1 0x20 DUP6 ADD SWAP5 POP PUSH1 0x20 DUP2 ADD SWAP1 POP PUSH2 0xDB2 JUMP JUMPDEST DUP7 DUP4 LT ISZERO PUSH2 0xDF4 JUMPI DUP5 DUP10 ADD MLOAD PUSH2 0xDF0 PUSH1 0x1F DUP10 AND DUP3 PUSH2 0xCFD JUMP JUMPDEST DUP4 SSTORE POP JUMPDEST PUSH1 0x1 PUSH1 0x2 DUP9 MUL ADD DUP9 SSTORE POP POP POP JUMPDEST POP POP POP POP POP POP JUMP INVALID LOG2 PUSH5 0x6970667358 0x22 SLT KECCAK256 SWAP14 MSTORE8 PUSH17 0xF9336E7C2083B7F62F350EEB8112E54580 PUSH20 0x9F8170F552D4567EBC4D6864736F6C6343000812 STOP CALLER "
				},
				"gasEstimates": {
					"creation": {
						"codeDepositCost": "729400",
						"executionCost": "25026",
						"totalCost": "754426"
					},
					"external": {
						"Empleados(uint256)": "infinite",
						"actualizarSalarioEmpleado(uint256,uint256)": "infinite",
						"agregarEmpleado(uint256,string,uint256)": "infinite",
						"eliminarEmpleado(uint256)": "infinite",
						"obtenerEmpleado(uint256)": "infinite",
						"propietario()": "2489"
					}
				},
				"methodIdentifiers": {
					"Empleados(uint256)": "77ec464f",
					"actualizarSalarioEmpleado(uint256,uint256)": "7609987d",
					"agregarEmpleado(uint256,string,uint256)": "a35fe0b6",
					"eliminarEmpleado(uint256)": "a1ca71b6",
					"obtenerEmpleado(uint256)": "748bd104",
					"propietario()": "3c4f81cd"
				}
			},
			"storageLayout": {
				"storage": [
					{
						"astId": 3,
						"contract": "introduction-solidity/00. Practicas_Solidity/01_Ejercicio_RegistroDeEmpleados.sol:ReistroDeEmpleados",
						"label": "propietario",
						"offset": 0,
						"slot": "0",
						"type": "t_address"
					},
					{
						"astId": 24,
						"contract": "introduction-solidity/00. Practicas_Solidity/01_Ejercicio_RegistroDeEmpleados.sol:ReistroDeEmpleados",
						"label": "Empleados",
						"offset": 0,
						"slot": "1",
						"type": "t_mapping(t_uint256,t_struct(Empleado)19_storage)"
					}
				],
				"types": {
					"t_address": {
						"encoding": "inplace",
						"label": "address",
						"numberOfBytes": "20"
					},
					"t_mapping(t_uint256,t_struct(Empleado)19_storage)": {
						"encoding": "mapping",
						"key": "t_uint256",
						"label": "mapping(uint256 => struct ReistroDeEmpleados.Empleado)",
						"numberOfBytes": "32",
						"value": "t_struct(Empleado)19_storage"
					},
					"t_string_storage": {
						"encoding": "bytes",
						"label": "string",
						"numberOfBytes": "32"
					},
					"t_struct(Empleado)19_storage": {
						"encoding": "inplace",
						"label": "struct ReistroDeEmpleados.Empleado",
						"members": [
							{
								"astId": 14,
								"contract": "introduction-solidity/00. Practicas_Solidity/01_Ejercicio_RegistroDeEmpleados.sol:ReistroDeEmpleados",
								"label": "idEmpleado",
								"offset": 0,
								"slot": "0",
								"type": "t_uint256"
							},
							{
								"astId": 16,
								"contract": "introduction-solidity/00. Practicas_Solidity/01_Ejercicio_RegistroDeEmpleados.sol:ReistroDeEmpleados",
								"label": "nombre",
								"offset": 0,
								"slot": "1",
								"type": "t_string_storage"
							},
							{
								"astId": 18,
								"contract": "introduction-solidity/00. Practicas_Solidity/01_Ejercicio_RegistroDeEmpleados.sol:ReistroDeEmpleados",
								"label": "salario",
								"offset": 0,
								"slot": "2",
								"type": "t_uint256"
							}
						],
						"numberOfBytes": "96"
					},
					"t_uint256": {
						"encoding": "inplace",
						"label": "uint256",
						"numberOfBytes": "32"
					}
				}
			},
			"userdoc": {
				"kind": "user",
				"methods": {},
				"version": 1
			}
		}
	}
}